:0400000007EF00F016
:10000800028209ED00F05FEF00F006009EA00FEFFE
:1000180000F011EF00F02CEF00F09DA016EF00F0BB
:1000280018EF00F02CEF00F08AA01DEF00F021EF90
:1000380000F0016A012A22EF00F0016A8A500118D3
:10004800FE0B01188A6E800ECF6E000ECE6E9E904B
:1000580002921100000ECD6ECD90CD9ECD9CCF0E9C
:10006800CD16CD86CD84CD82800ECF6E000ECE6E9D
:10007800CD801200000ED06E000EF26E000E9E6E45
:10008800000E9D6ED09EF28EF28C9D809E90120086
:1000980058EC00F03EEC00F02EEC00F0939000F0ED
:1000A80053EF00F007EF00F0000ED36E700ED3127E
:1000B800030ED31212000290029200014CEF00F0DE
:020000040020DA
:08000000FFFFFFFFFFFFFFFF00
:020000040030CA
:0E000000000B191EFF8080FF0FC00FE00F40A5
:00000001FF
