:0400000007EF00F016
:1000080002824CED00F047EF00F040EC00F026ECE7
:1000180000F0000E956E000E8C6EC282C2B217EF11
:1000280000F019EF00F012EF00F0C4CF8CFF030EC0
:10003800016E980EE82EFED7012EFCD711EF00F0C6
:1000480007EF00F0000EC26E000EC16E000EC06E0B
:10005800C290C30EC216CF0EC116C150F00B0E09C6
:10006800C16EC09EC050F80B0109C06EC050C70BCE
:100078003009C06EC2801200000ED36E700ED3120B
:10008800030ED312120002900292000109EF00F051
:06009800060002921100B7
:020000040020DA
:08000000FFFFFFFFFFFFFFFF00
:020000040030CA
:0E000000000B191EFF8180FF0FC00FE00F40A4
:00000001FF
