:0400000007EF00F016
:1000080004822BED00F065EF00F05CEC00F04DECA5
:1000180000F0959095928C80030E036E8A0E026E06
:10002800560EE82EFED7022EFCD7032EFAD78C9058
:10003800030E036E8A0E026E560EE82EFED7022EAF
:10004800FCD7032EFAD70FEF00F007EF00F00600F9
:10005800F2A231EF00F033EF00F04BEF00F0F2A224
:1000680038EF00F03AEF00F04BEF00F08CA23FEFD2
:1000780000F043EF00F0016A012A44EF00F0016A42
:1000880001468C500118FD0B01188C6EF2920492F7
:100098001100000EF26E000EF16E000EF06E000EF2
:1000A800D06ED09EF28EF288F292F18C938012007C
:1000B800000ED36E700ED312D350FC0B0209D36E10
:0C00C800120004900492000109EF00F007
:020000040020DA
:08000000FFFFFFFFFFFFFFFF00
:020000040030CA
:0E000000000B191EFF8080FF0FC00FE00F40A5
:00000001FF
