:0400000099EF04F080
:0708000000484F4C410000CD
:10080800026E0250F00B036E02C001F00F0E0116CB
:100818000138F00B046E03508C128C86070E016EA3
:100828007D0EE82EFED7012EFCD700F08C96070E21
:10083800016E7D0EE82EFED7012EFCD700F0035086
:10084800FF0A8C1604508C128C86070E016E7D0EE2
:10085800E82EFED7012EFCD700F08C96070E016E0D
:100868007D0EE82EFED7012EFCD700F00450FF0ABB
:100878008C161200000E0A6E51EF04F00A5006247E
:10088800086E000E0720096E08C0F6FF09C0F7FFC2
:100898000800F550A0EC04F00A2A0A500624086E55
:1008A800000E0720096E08C0F6FF09C0F7FF080010
:1008B800F5500009D8A463EF04F065EF04F042EFA7
:1008C80004F01200B0EC04F084EC04F0800EA6EC06
:1008D80004F0010E066E080E076E3EEC04F0010EE1
:1008E8008C1A030E0C6E8A0E0B6E560EE82EFED76F
:1008F8000B2EFCD70C2EFAD773EF04F000EF00F0A4
:10090800ACEC04F0010EA6EC04F0020EA6EC04F028
:10091800060EA6EC04F00C0EA6EC04F0100EA6ECE5
:1009280004F02C0EA6EC04F01200000EF86E080E6F
:10093800F76E000166EF04F0056E8C82055004EC3A
:1009480004F01200056E8C92055004EC04F01200BD
:0E095800000E956E8C94120095908C901200FB
:020000040020DA
:08000000FFFFFFFFFFFFFFFF00
:020000040030CA
:0E000000000C191EFF8080FF0FC00FE00F40A4
:00000001FF
