:04000000BDEF04F05C
:0708000000484F4C410000CD
:10080800026E0250F00B036E02C001F00F0E0116CB
:100818000138F00B046E03508C128C86070E016EA3
:100828007D0EE82EFED7012EFCD700F08C96070E21
:10083800016E7D0EE82EFED7012EFCD700F0035086
:10084800FF0A8C1604508C128C86070E016E7D0EE2
:10085800E82EFED7012EFCD700F08C96070E016E0D
:100868007D0EE82EFED7012EFCD700F00450FF0ABB
:100878008C161200000E0A6E51EF04F00A5006247E
:10088800086E000E0720096E08C0F6FF09C0F7FFC2
:100898000800F550C4EC04F00A2A0A500624086E31
:1008A800000E0720096E08C0F6FF09C0F7FF080010
:1008B800F5500009D8A463EF04F065EF04F042EFA7
:1008C80004F01200076E000E086E0750D8A46FEFF0
:1008D80004F071EF04F075EF04F0800E086E82EFFB
:1008E80004F00704D8A47BEF04F07DEF04F081EF57
:1008F80004F0C00E086E82EF04F000F006500826DF
:100908000850CAEC04F01200D4EC04F0A8EC04F08F
:10091800000E066E010E66EC04F0010E066E080E5F
:10092800076E3EEC04F0010E8C1A030E0C6E8A0E54
:100938000B6E560EE82EFED70B2EFCD70C2EFAD7D0
:1009480097EF04F000EF00F0D0EC04F0010ECAECD1
:1009580004F0020ECAEC04F0060ECAEC04F00C0E09
:10096800CAEC04F0100ECAEC04F02C0ECAEC04F029
:100978001200000EF86E080EF76E000188EF04F002
:10098800056E8C82055004EC04F01200056E8C9202
:10099800055004EC04F01200000E956E8C941200C1
:0609A80095908C901200F6
:020000040020DA
:08000000FFFFFFFFFFFFFFFF00
:020000040030CA
:0E000000000C191EFF8080FF0FC00FE00F40A4
:00000001FF
