:0400000007EF00F016
:0A0008005F82ACED1CF047EF1CF026
:1008000000506572632E203D20252E32662525007E
:1008100050574D202D204D4F544F5200494E460009
:100820004E414E00696E66006E616E006C6600009F
:10083000000E00017B6F000E7A6F4FC08CF050C02D
:100840008DF051C08EF052C08FF08FBF2CEF04F0AE
:100850002AEF04F042EF04F0000E7B6F010E7A6F76
:100860008CC001F08DC002F08EC003F08FC004F088
:10087000C6EC1BF001C08CF002C08DF003C08EF0FE
:1008800004C08FF0000E0001936F000E926FD2C073
:100890007EF0D3C07FF07A517B11D8A452EF04F0E0
:1008A00054EF04F05BEF04F0D6A559EF04F05BEFD2
:1008B00004F075EF04F07A517B11D8A462EF04F0D4
:1008C00064EF04F06AEF04F0000E616F2B0E606FAE
:1008D0006EEF04F0000E616F2D0E606F60C000F1CE
:1008E000924B932B7E07D8A07F078CC001F08DC060
:1008F00002F08EC003F08FC004F02FEC17F001045B
:100900000210D8A486EF04F088EF04F0DFEF04F0C3
:10091000BF0E546EFF0E556E5350566E576A5450AC
:1009200056265550572257500AE11A0E565CD8A049
:100930009CEF04F09FEF04F0010EA0EF04F0000E16
:100940000001626F636B62516311D8B4AAEF04F0C7
:10095000ACEF04F0BAEF04F0000E9225016E010E28
:100960009321026E1C0E036E080E046EC3EC1AF087
:10097000C6EF04F0000E9225016E010E9321026E67
:10098000240E036E080E046EC3EC1AF00001FD0E77
:100990007E27FF0E7F234DC011F04EC012F0000ED7
:1009A000136E010E146E7EC015F07FC016F07EEC43
:1009B00018F011C04DF012C04EF043EF0AF08CC099
:1009C00001F08DC002F08EC003F08FC004F02FEC58
:1009D00017F001500210D8A4F0EF04F0F2EF04F089
:1009E00032EF05F0BF0E546EFF0E556E5350566E2B
:1009F000576A545056265550572257500AE11A0E3E
:100A0000565CD8A006EF05F009EF05F0010E0AEFDD
:100A100005F0000E0001646F656B64516511D8B478
:100A200014EF05F016EF05F024EF05F0000E922507
:100A3000016E010E9321026E200E036E080E046EED
:100A4000C3EC1AF0C6EF04F0000E9225016E010E01
:100A50009321026E280E036E080E046EC3EC1AF08A
:100A6000C6EF04F0000E0001946F000E956F800E2B
:100A7000966F3F0E976F000E916F000E906F8CC0B7
:100A800001F08DC002F08EC003F08FC004F0000EA4
:100A9000056E000E066E000E076E000E086E9BECD3
:100AA00019F0D8B056EF05F058EF05F0DBEF05F080
:100AB00077EF05F094C028F095C029F096C02AF091
:100AC00097C02BF0000E2C6E000E2D6E200E2E6E99
:100AD000410E2F6ED9EC0EF028C094F029C095F08D
:100AE0002AC096F02BC097F00001904B912B8CC040
:100AF00041F08DC042F08EC043F08FC044F0000E34
:100B00002C6E000E2D6E200E2E6E410E2F6E94C098
:100B100028F095C029F096C02AF097C02BF0D9ECA8
:100B20000EF028C045F029C046F02AC047F02BC07F
:100B300048F0ADEC16F0D8B0A0EF05F0A2EF05F04C
:100B40005AEF05F0C2EF05F094C00FF095C010F019
:100B500096C011F097C012F0000E136E000E146EC6
:100B6000200E156E410E166EEEEC10F00FC094F0D4
:100B700010C095F011C096F012C097F000019007D8
:100B8000D8A091078CC041F08DC042F08EC043F0D8
:100B90008FC044F094C045F095C046F096C047F031
:100BA00097C048F0ADEC16F0D8A0D9EF05F0DBEF18
:100BB00005F0A4EF05F053C007F0086A93EC1AF0B3
:100BC00007500001816F81C080F0670E8119D8A4A1
:100BD000ECEF05F0EEEF05F014EF06F0D451D5116F
:100BE000D8A4F5EF05F0F7EF05F0FBEF05F0000EE8
:100BF000D56F010ED46FD5BF08EF06F0D55106E1D1
:100C0000D405D8B006EF06F008EF06F00EEF06F0B8
:100C1000000E7D6F060E7C6F1DEF06F0D4C07CF0D9
:100C2000D5C07DF01DEF06F0D5BF19EF06F01BEF24
:100C300006F008EF06F00EEF06F0670E8119D8A453
:100C400024EF06F026EF06F055EF06F091AF34EFF3
:100C500006F0FC0E905DFF0E9159D8A032EF06F021
:100C600034EF06F053EF06F0FF0E546EFF0E556E94
:100C70007CC056F07DC057F0545056265550572230
:100C80009051565C5750800A586E9151800A5858BE
:100C9000D8A04DEF06F04FEF06F053EF06F0660ECA
:100CA000806F55EF06F0650E806F7CC072F07DC0DE
:100CB00073F0670E8119D8A460EF06F062EF06F0BA
:100CC00072EF06F0660E8019D8A469EF06F06BEF9C
:100CD00006F074EF06F091BF72EF06F070EF06F0C9
:100CE00074EF06F0724B732B660E8019D8A47BEF5D
:100CF00006F07DEF06F09DEF06F091BF84EF06F061
:100D000082EF06F090EF06F0000E946F000E956FE4
:100D1000800E966F3F0E976F000E916F000E906FD2
:100D2000670E8119D8B497EF06F099EF06F09DEFA2
:100D300006F09051722791517323000E8B6F000EB5
:100D40008A6F8CC082F08DC083F08EC084F08FC01B
:100D500085F094C074F095C075F096C076F097C099
:100D600077F02EEF07F082C00FF083C010F084C040
:100D700011F085C012F094C013F095C014F096C025
:100D800015F097C016F0EEEC10F00FC028F010C070
:100D900029F011C02AF012C02BF0BBEC12F028C0D1
:100DA00086F029C087F02AC088F02BC089F086C061
:100DB00041F087C042F088C043F089C044F02AEC7B
:100DC00016F041C078F042C079F082C041F083C093
:100DD00042F084C043F085C044F094C02CF095C02C
:100DE0002DF096C02EF097C02FF086C028F087C057
:100DF00029F088C02AF089C02BF0D9EC0EF028C069
:100E000045F029C046F02AC047F02BC048F043EC1B
:100E10001BF041C082F042C083F043C084F044C064
:100E200085F094C00FF095C010F096C011F097C0F7
:100E300012F0000E136E000E146E200E156E410E91
:100E4000166EEEEC10F00FC094F010C095F011C0CB
:100E500096F012C097F000018A4B8B2B72518A5D7D
:100E60008B51800A546E7351800A5458D8A03BEFBE
:100E700007F03DEF07F0B3EF06F094C028F095C0FF
:100E800029F096C02AF097C02BF0000E2C6E000EB1
:100E90002D6EA00E2E6E400E2F6ED9EC0EF028C0D7
:100EA00086F029C087F02AC088F02BC089F082C064
:100EB00041F083C042F084C043F085C044F086C056
:100EC00045F087C046F088C047F089C048F0ADECD7
:100ED00016F0D8B06EEF07F070EF07F07BEF07F079
:100EE000000E0001866F000E876F000E886F000EE7
:100EF000896FA4EF07F082C001F083C002F084C0C4
:100F000003F085C004F086C005F087C006F088C0F5
:100F100007F089C008F09BEC19F0D8A092EF07F019
:100F200094EF07F0A4EF07F0000178B19AEF07F013
:100F30009CEF07F0A4EF07F0000E866F000E876F9E
:100F4000000E886F000E896F8CC001F08DC002F01A
:100F50008EC003F08FC004F086C005F087C006F095
:100F600088C007F089C008F044EC0AF001C082F0A4
:100F700002C083F003C084F004C085F082C041F059
:100F800083C042F084C043F085C044F0000E2C6E54
:100F9000000E2D6E200E2E6E410E2F6E74C028F0A6
:100FA00075C029F076C02AF077C02BF0D9EC0EF08E
:100FB00028C045F029C046F02AC047F02BC048F0B1
:100FC000ADEC16F0D8A0E7EF07F0E9EF07F012EF6D
:100FD00008F00001904B912B74C028F075C029F0E7
:100FE00076C02AF077C02BF0000E2C6E000E2D6E0E
:100FF000200E2E6E410E2F6ED9EC0EF028C074F02C
:1010000029C075F02AC076F02BC077F0660E00017B
:101010008019D8A40EEF08F010EF08F012EF08F0D6
:10102000724B732B74C094F075C095F076C096F037
:1010300077C097F0650E00018019D8B422EF08F050
:1010400024EF08F02AEF08F090C070F091C071F022
:101050002EEF08F0000E716F000E706F000E6F6FB4
:10106000000E6E6F000E6D6F000E6C6F000E8B6FBA
:10107000000E8A6F29EF09F082C00FF083C010F0D4
:1010800084C011F085C012F094C013F095C014F024
:1010900096C015F097C016F0EEEC10F00FC028F0D7
:1010A00010C029F011C02AF012C02BF0BBEC12F0D6
:1010B00028C086F029C087F02AC088F02BC089F0AC
:1010C00086C041F087C042F088C043F089C044F038
:1010D0002AEC16F041C078F042C079F00001D6B990
:1010E00074EF08F076EF08F093EF08F0785179117B
:1010F000D8A47DEF08F07FEF08F093EF08F0670EBB
:101100008119D8A486EF08F088EF08F093EF08F073
:1011100071BF8FEF08F08DEF08F093EF08F06C4B84
:101120006D2BDDEF08F06E516F11D8A49AEF08F027
:101130009CEF08F0C6EF08F071BFA3EF08F0A1EF35
:1011400008F0C6EF08F0000E9225D96E010E93212B
:10115000DA6E2E0EDF6E924B932B7E07D8A07F07A0
:10116000000E6F6F010E6E6FC6EF08F0000E922535
:10117000D96E010E9321DA6E300EDF6E924B932BF7
:101180007E07D8A07F076C07D8A06D076C516D1142
:10119000D8A4CDEF08F0CFEF08F0B6EF08F0000EBE
:1011A0009225D96E010E9321DA6E7851300FDF6EE1
:1011B000924B932B7E07D8A07F0782C041F083C05B
:1011C00042F084C043F085C044F094C02CF095C038
:1011D0002DF096C02EF097C02FF086C028F087C063
:1011E00029F088C02AF089C02BF0D9EC0EF028C075
:1011F00045F029C046F02AC047F02BC048F043EC28
:101200001BF041C082F042C083F043C084F044C070
:1012100085F094C00FF095C010F096C011F097C003
:1012200012F0000E136E000E146E200E156E410E9D
:10123000166EEEEC10F00FC094F010C095F011C0D7
:1012400096F012C097F000017007D8A071078A4B82
:101250008B2B72518A5D8B51800A546E7351800AB8
:101260005458D8B036EF09F038EF09F046EF09F0DE
:1012700093BF44EF09F0935109E14B0E925DD8A062
:1012800044EF09F046EF09F03CEF08F06E516F11A2
:10129000D8A44DEF09F04FEF09F060EF09F0D6A99F
:1012A00054EF09F056EF09F060EF09F0000E9225B7
:1012B000D96E010E9321DA6E2E0EDF6E924B932BB8
:1012C000000E9225D96E010E9321DA6E000EDF6EAC
:1012D000650E8019D8A46FEF09F071EF09F0CBEF1C
:1012E00004F0000E8B6F4F0E8A6F000E8A25D96EA8
:1012F000010E8B21DA6E000EDF6E000E7B6F000E8A
:101300007A6F91BF88EF09F086EF09F090EF09F04E
:10131000000E7B6F010E7A6F906D911FD8B0912BEC
:10132000000E7D6F020E7C6FC1EF09F08A07D8A016
:101330008B07000E8A25D96E010E8B21DA6E90C0C4
:1013400001F091C002F0000E046E0A0E036E43EC31
:1013500019F00150300FDF6E90C001F091C002F023
:10136000000E046E0A0E036EE1EC18F001C090F05E
:1013700002C091F000017C07D8A07D077E07D8A0AD
:101380007F0790519111D8A4C8EF09F0CAEF09F076
:1013900096EF09F07DBFD7EF09F07D5106E17C059E
:1013A000D8B0D5EF09F0D7EF09F096EF09F08A072A
:1013B000D8A08B077A517B11D8A4E1EF09F0E3EFB5
:1013C00009F0E9EF09F0000E676F2B0E666FEDEF85
:1013D00009F0000E676F2D0E666F000E8A25D96E1C
:1013E000010E8B21DA6E66C0DFFF7E07D8A07F0773
:1013F0008A07D8A08B07BF0E546EFF0E556E535050
:10140000566E576A545056265550572257500AE187
:101410001A0E565CD8A00FEF0AF012EF0AF0010E78
:1014200013EF0AF0000E6A6F6B6B6A516B11D8A450
:101430001CEF0AF01EEF0AF024EF0AF0000E696FAD
:10144000650E686F28EF0AF0000E696F450E686F31
:10145000000E8A25D96E010E8B21DA6E68C0DFFF7F
:101460007E07D8A07F07000E9225016E010E932102
:10147000026E000E8A25036E010E8B21046EC3ECF2
:101480001AF0CBEF04F012000450800B0D6E0450E4
:1014900004240F6E03AE4FEF0AF051EF0AF052EF43
:1014A0000AF00F800F50D8B458EF0AF05AEF0AF044
:1014B0006FEF0AF00F28D8A460EF0AF062EF0AF08D
:1014C0006AEF0AF0000E016E000E026E000E036E4F
:1014D000000E046E038E000E046E77EF0AF0000E0D
:1014E000016E000E026E000E036E000E046E0850B8
:1014F000800B0E6E0D500E18D8B481EF0AF083EFFA
:101500000AF084EF0AF00D8C085008240E6E07AE26
:101510008CEF0AF08EEF0AF08FEF0AF00E800E507B
:10152000D8B495EF0AF097EF0AF0ACEF0AF00E2866
:10153000D8A49DEF0AF09FEF0AF0A7EF0AF0000E83
:10154000056E000E066E000E076E000E086E078E0A
:10155000000E086EB4EF0AF0000E056E000E066E67
:10156000000E076E000E086E0F500E5CD8B0BBEF79
:101570000AF0BDEF0AF0E4EF0AF00DACC2EF0AF09A
:10158000C4EF0AF0C6EF0AF0800E0D1A0FC010F07B
:101590000EC00FF010C00EF001C010F005C001F039
:1015A00010C005F002C010F006C002F010C006F036
:1015B00003C010F007C003F010C007F004C010F023
:1015C00008C004F010C008F0000E106E0F500EC0DE
:1015D00009F00A6A095E000E0A5A0ABEF9EF0AF01B
:1015E0000A5009E11A0E095CD8A0F9EF0AF0FBEFE6
:1015F0000AF032EF0BF00150021003100410D8A4CF
:1016000004EF0BF007EF0BF0010E08EF0BF0000EEC
:10161000106E000E016E000E026E000E036E000EC4
:10162000046E0EC00FF03BEF0BF010A01AEF0BF0A2
:101630001CEF0BF022EF0BF0D89010300109106E68
:1016400024EF0BF0D890103201A029EF0BF02BEF14
:101650000BF02CEF0BF0108E043404320332023204
:1016600001320F2A0E500F5CD8A039EF0BF03BEF80
:101670000BF015EF0BF00DBC40EF0BF042EF0BF051
:1016800082EF0BF00F50D8A448EF0BF04AEF0BF0AD
:1016900054EF0BF0000E016E000E026E000E036E92
:1016A000000E046EA3EF0CF0055001260650022236
:1016B000075003220850042204A061EF0BF063EFEF
:1016C0000BF00FEF0CF010A068EF0BF06AEF0BF0CF
:1016D00070EF0BF0D89010300109106E72EF0BF024
:1016E000D890103201A077EF0BF079EF0BF07AEF82
:1016F0000BF0108E043404320332023201320F2A0E
:101700000FEF0CF00550015C0650025807500358CB
:101710000450800A096E0850800A0958D8B093EF27
:101720000BF095EF0BF0C0EF0BF00150055C096E6C
:10173000025006580A6E035007580B6E04500858A2
:101740000C6EFF0E0924016EFF0E0A20026EFF0EC2
:101750000B20036EFF0E0C20046E800E0D1A106C11
:101760001050D8A4B6EF0BF0B8EF0BF0C8EF0BF0A9
:10177000010E0126000E022203220422C8EF0BF004
:101780000550015E0650025A0750035A0850045A89
:101790000150021003100410D8A4D1EF0BF0D3EFC6
:1017A0000BF008EF0CF01050D8A4D9EF0BF0DBEFE2
:1017B0000BF008EF0CF0000E016E000E026E000E32
:1017C000036E000E046EA3EF0CF0D89001360236C3
:1017D0000336043610AEEFEF0BF0F1EF0BF0F2EF43
:1017E0000BF0018010A0F7EF0BF0F9EF0BF0FDEF1D
:1017F0000BF0D8801036FFEF0BF0D89010360F505A
:10180000D8B405EF0CF007EF0CF008EF0CF00F0662
:1018100003AE0DEF0CF00FEF0CF0E5EF0BF0000E48
:101820000E6E10AE16EF0CF018EF0CF030EF0CF05F
:1018300010C009F07F0E0916D8B421EF0CF023EF89
:101840000CF027EF0CF0010E0E6E30EF0CF001A043
:101850002CEF0CF02EEF0CF030EF0CF023EF0CF02F
:101860000E50D8B436EF0CF038EF0CF063EF0CF0FC
:10187000010E0126000E02220322042204A043EFDF
:101880000CF045EF0CF063EF0CF001C009F002C062
:101890000AF003C00BF004C00CF00C340C320B3215
:1018A0000A32093209C001F00AC002F00BC003F08D
:1018B0000CC004F00F28D8B460EF0CF062EF0CF00D
:1018C00063EF0CF00F2A0F28D8B469EF0CF06BEF20
:1018D0000CF073EF0CF00F50D8A471EF0CF073EF15
:1018E0000CF085EF0CF0000E016E000E026E000E83
:1018F000036E000E046E0F50D8A481EF0CF083EF3E
:101900000CF085EF0CF0000E0D6E0FA08AEF0CF0BE
:101910008CEF0CF08FEF0CF0038E90EF0CF0039E29
:10192000D8900F30046E0DAE98EF0CF09AEF0CF0DB
:101930009BEF0CF0048E01C001F002C002F003C066
:1019400003F004C004F012005BC0D9FF5CC0DAFFF2
:10195000DECFF6FFDDCFF7FF0800F550250AD8A44B
:10196000B4EF0CF0B6EF0CF0BDEF0EF05BC0D9FF9A
:101970005CC0DAFFDE2A000EDD22000E0001D36F0C
:10198000000ED26FD2C0D6F0D3C0D7F0D469D569DB
:101990005BC0D9FF5CC0DAFFDECFF6FFDDCFF7FF1B
:1019A0000800F5502E0AD8A4D8EF0CF0DAEF0CF0AE
:1019B00058EF0DF0000ED56F000ED46F5BC0D9FF4D
:1019C0005CC0DAFFDE2A000EDD225BC0D9FF5CC0FE
:1019D000DAFFDECFF6FFDDCFF7FF0800F5502A0A69
:1019E000D8A4F5EF0CF0F7EF0CF014EF0DF05BC09E
:1019F000D9FF5CC0DAFFDE2A000EDD225DC0D9FF10
:101A00005EC0DAFFDFCF98F0020EDE26DFCF99F05E
:101A1000000EDD2298C0D9FF99C0DAFFDECFD4F0E6
:101A2000DDCFD5F058EF0DF05BC0D9FF5CC0DAFF19
:101A3000DECF08F0DDCF09F09EEC14F008C0D4F042
:101A400009C0D5F02BEF0DF05BC0D9FF5CC0DAFF09
:101A5000DE2A000EDD22D00E0001986FFF0E996F76
:101A60005BC0D9FF5CC0DAFFDECFF6FFDDCFF7FF4A
:101A70000800F5509A6F9B6B98519A2799519B23B8
:101A80009B510AE10A0E9A5DD8A049EF0DF04CEF88
:101A90000DF0010E4DEF0DF0000E9C6F9D6B9C51F3
:101AA0009D11D8A456EF0DF058EF0DF024EF0DF076
:101AB0005BC0D9FF5CC0DAFFDECFF6FFDDCFF7FFFA
:101AC0000800F550076E086A93EC1AF00750000101
:101AD000A46FA451D8B46FEF0DF071EF0DF0ABEF20
:101AE0000DF05BC0D9FF5CC0DAFFDECF98F0DDCF30
:101AF00099F0010E9827000E992398C0F6FF99C01F
:101B0000F7FF0800F550076E086A93EC1AF00750CB
:101B10000001A56FA551D8B490EF0DF092EF0DF034
:101B2000ABEF0DF05BC0D9FF5CC0DAFFDECF98F001
:101B3000DDCF99F0020E9827000E992398C0F6FF8A
:101B400099C0F7FF0800F550076E086A93EC1AF089
:101B500007500001A66F660EA419D8A4B2EF0DF0CD
:101B6000B4EF0DF0F4EF0DF05BC0D9FF5CC0DAFF0D
:101B7000DECFF6FFDDCFF7FF0800F5CFA7F05BC0A3
:101B8000D9FF5CC0DAFFDE2A000EDD225DC0D9FF7E
:101B90005EC0DAFFDFCF98F0040EDE26DFCF99F0CB
:101BA000000EDD2298C0D9FF99C0DAFFDECFA0F089
:101BB000DECFA1F0DECFA2F0DECFA3F059C04DF012
:101BC0005AC04EF0A0C04FF0A1C050F0A2C051F0DA
:101BD000A3C052F0A7C053F018EC04F04DC059F068
:101BE0004EC05AF0D8EF0EF0A40E016E000E026E39
:101BF0002C0E036E080E046E000E066E020E056EAD
:101C0000AEEC17F001500210D8A409EF0EF00BEF64
:101C10000EF087EF0EF05BC0D9FF5CC0DAFFDECFBD
:101C200098F0DDCF99F0010E00019827000E99235E
:101C300098C0F6FF99C0F7FF0800F5CFA7F0BF0ED8
:101C4000986FFF0E996F5BC0D9FF5CC0DAFFDECFE3
:101C5000F6FFDDCFF7FF0800F5509A6F9B6B9851A8
:101C60009A2799519B239B510AE11A0E9A5DD8A09D
:101C70003CEF0EF03FEF0EF0010E40EF0EF0000EC5
:101C80009E6F9F6B9E519F11D8B449EF0EF04BEFA2
:101C90000EF065EF0EF05DC0D9FF5EC0DAFFDFCF5A
:101CA00098F0040EDE26DFCF99F0000EDD2298C0FA
:101CB000D9FF99C0DAFFDECFA0F0DECFA1F0DECFF2
:101CC000A2F0DECFA3F07DEF0EF05DC0D9FF5EC0C5
:101CD000DAFFDFCF98F0040EDE26DFCF99F0000E9A
:101CE000DD2298C0D9FF99C0DAFFDECFA0F0DECFA9
:101CF000A1F0DECFA2F0DECFA3F0020E5BC0D9FFD1
:101D00005CC0DAFFDE26000EDD22DEEF0DF05BC0E8
:101D1000D9FF5CC0DAFFDECFF6FFDDCFF7FF0800AA
:101D2000F550250AD8A497EF0EF099EF0EF0B0EF1A
:101D30000EF05BC0D9FF5CC0DAFFDE2A000EDD22A8
:101D4000000E026E250E016E59C003F05AC004F059
:101D500019EC18F0000E5A6E010E596ED8EF0EF005
:101D60005BC0D9FF5CC0DAFFDE2A000EDD22000E68
:101D70005A6E000E596ED8EF0EF05BC0D9FF5CC0F2
:101D8000DAFFDECFF6FFDDCFF7FF0800F550016E7A
:101D9000026A59C003F05AC004F019EC18F05BC095
:101DA000D9FF5CC0DAFFDE2A000EDD22AAEF0EF0BA
:101DB00012002B50800B346E2B502B243A6E2AAE1F
:101DC000E4EF0EF0E6EF0EF0E7EF0EF03A803A5057
:101DD000D8B4EDEF0EF0EFEF0EF002EF0FF03A286F
:101DE000D8A4F5EF0EF0F7EF0EF0FFEF0EF0000EB7
:101DF000286E000E296E000E2A6E000E2B6E2A8EA3
:101E00000AEF0FF0000E286E000E296E000E2A6EEB
:101E1000000E2B6E2F50800B341A2F502F24396E4A
:101E20002EAE15EF0FF017EF0FF018EF0FF039800F
:101E30003950D8B41EEF0FF020EF0FF033EF0FF052
:101E40003928D8A426EF0FF028EF0FF030EF0FF06D
:101E5000000E2C6E000E2D6E000E2E6E000E2F6EDC
:101E60002E8E3BEF0FF0000E2C6E000E2D6E000E2E
:101E70002E6E000E2F6E3950D8B441EF0FF043EFA5
:101E80000FF04BEF0FF03A50D8A449EF0FF04BEFA3
:101E90000FF055EF0FF0000E286E000E296E000EA9
:101EA0002A6E000E2B6EEDEF10F02E502802F3CFAD
:101EB0003FF0F4CF40F03F50356E366A376A386AEB
:101EC00040503B6E3C6A3D6A3E6A2D502902F3CF7A
:101ED0003FF0F4CF40F03F503526000E3622372237
:101EE000382240503B26000E3C223D223E222C5000
:101EF0002A02F3CF3FF0F4CF40F03F503526000EDA
:101F000036223722382240503B26000E3C223D220A
:101F10003E2237C038F036C037F035C036F0356A6B
:101F20002C502902F3CF3FF0F4CF40F03F5035263C
:101F300040503622000E3722000E38222D50280243
:101F4000F3CF3FF0F4CF40F03F50352640503622DB
:101F5000000E3722000E382237C038F036C037F076
:101F600035C036F0356A2C502802F3CF3FF0F4CF5D
:101F700040F03F50352640503622000E3722000EEA
:101F800038222E502902F3CF3FF0F4CF40F03F50DB
:101F90003B2640503C22000E3D22000E3E222D509A
:101FA0002A02F3CF3FF0F4CF40F03F503B264050A1
:101FB0003C22000E3D22000E3E222E502A02F3CF7C
:101FC0003FF0F4CF40F03F50306E4050316E326AF7
:101FD000336A32C033F031C032F030C031F0306A91
:101FE00030503B2631503C2232503D2233503E226D
:101FF00035C030F036C031F037C032F038C033F081
:10200000190E08EF10F0D8903332323231323032BC
:10201000E82E03EF10F030503B2631503C22325076
:102020003D2233503E2237C038F036C037F035C03D
:1020300036F0356A39503AC030F0316A3026000E39
:102040003122820E30243F6EFF0E3120406E3EEF73
:1020500010F0D8903B363C363D363E3638AE33EF46
:1020600010F035EF10F036EF10F03B80D890353699
:102070003636373638363F06D8A040063DAE43EFF9
:1020800010F045EF10F029EF10F0000E396E38AE69
:102090004CEF10F04EEF10F072EF10F0FF0E351411
:1020A000306EFF0E3614316EFF0E3714326E7F0E17
:1020B0003814336E3050311032103310D8B463EF0F
:1020C00010F065EF10F069EF10F0010E396E72EF4D
:1020D00010F03BA06EEF10F070EF10F072EF10F008
:1020E00065EF10F03950D8B478EF10F07AEF10F0B7
:1020F0009EEF10F0010E3B26000E3C223D223E22B8
:102100003EA085EF10F087EF10F09EEF10F03BC07F
:1021100030F03CC031F03DC032F03EC033F03334DB
:10212000333232323132303230C03BF031C03CF0E9
:1021300032C03DF033C03EF03F4A402A40BEA9EFD6
:1021400010F0405008E13F28D8A0A9EF10F0ABEF05
:1021500010F0B5EF10F0000E3B6E000E3C6E800EDE
:102160003D6E7F0E3E6EE3EF10F040BEC2EF10F00A
:10217000405006E13F04D8B0C0EF10F0C2EF10F0BD
:10218000CEEF10F0000E3B6E000E3C6E000E3D6E6A
:10219000000E3E6E000E346EE3EF10F03FC03AF0DA
:1021A000FF0E3B16FF0E3C167F0E3D16000E3E1630
:1021B0003AA0DDEF10F0DFEF10F0E0EF10F03D8E11
:1021C000D8903A303E6E34503E123BC028F03CC0AE
:1021D00029F03DC02AF03EC02BF012001250800BB7
:1021E0001F6E12501224266E11AEF9EF10F0FBEFA5
:1021F00010F0FCEF10F026802650D8B402EF11F05A
:1022000004EF11F019EF11F02628D8A40AEF11F00D
:102210000CEF11F014EF11F0000E0F6E000E106EA7
:10222000000E116E000E126E118E000E126E21EF56
:1022300011F0000E0F6E000E106E000E116E000EEB
:10224000126E1650800B1F1A16501624276E15AEEC
:102250002CEF11F02EEF11F02FEF11F02780275007
:10226000D8B435EF11F037EF11F04CEF11F027280B
:10227000D8A43DEF11F03FEF11F047EF11F0000E41
:10228000136E000E146E000E156E000E166E158E77
:10229000000E166E54EF11F0000E136E000E146E49
:1022A000000E156E000E166E135014101510161039
:1022B000D8A45DEF11F05FEF11F077EF11F0000E91
:1022C0000F6E000E106E000E116E000E126E800E5C
:1022D00011127F0E12121F5012120FC00FF010C0F9
:1022E00010F011C011F012C012F0BAEF12F0265027
:1022F000D8A47DEF11F07FEF11F089EF11F0000EFF
:102300000F6E000E106E000E116E000E126EBAEF00
:1023100012F0275026C017F0186A175E000E185AE0
:102320007F0E1724206E000E1820216E0FC01BF0A8
:1023300010C01CF011C01DF012C01EF0000E0F6E78
:10234000000E106E000E116E000E126E000E226E48
:10235000000E236E000E246E000E256E000E276EFA
:10236000EAEF11F02750D8B4B8EF11F0BAEF11F03E
:10237000D1EF11F0D8901B361C361D361E36D89082
:102380000F3610361136123625AEC9EF11F0CBEFED
:1023900011F0CCEF11F00F80D8902236233624367E
:1023A000253613501B5C14501C5815501D581650E0
:1023B0001E58D8A0DEEF11F0E0EF11F0E9EF11F0B8
:1023C000258C13501B5E14501C5A15501D5A165064
:1023D0001E5A272A190E2764F0EF11F0F2EF11F0C0
:1023E000B2EF11F01B501C101D101E10D8B4FBEFE3
:1023F00011F0FDEF11F015EF12F0228015EF12F041
:10240000D8900F3610361136123625AE0AEF12F07C
:102410000CEF12F00DEF12F00F80D8902236233619
:10242000243625362006D8A0210611AE1AEF12F068
:102430001CEF12F000EF12F0000E276E25AE23EF16
:1024400012F025EF12F049EF12F0FF0E2214176E72
:10245000FF0E2314186EFF0E2414196E7F0E251420
:102460001A6E1750181019101A10D8B43AEF12F04B
:102470003CEF12F040EF12F0010E276E49EF12F020
:102480000FA045EF12F047EF12F049EF12F03CEFCA
:1024900012F02750D8B44FEF12F051EF12F075EF51
:1024A00012F0010E0F26000E10221122122212A08D
:1024B0005CEF12F05EEF12F075EF12F00FC017F044
:1024C00010C018F011C019F012C01AF01A341A32E4
:1024D00019321832173217C00FF018C010F019C097
:1024E00011F01AC012F0204A212A21BE80EF12F00A
:1024F000215008E12028D8A080EF12F082EF12F0DE
:102500008DEF12F0000E216E2068000E0F6E000E8F
:10251000106E000E116E000E126E21BE9AEF12F0B8
:10252000215006E12004D8B098EF12F09AEF12F093
:10253000A8EF12F0000E216E000E206E000E0F6E3E
:10254000000E106E000E116E000E126E000E1F6E49
:1025500020C026F026A0AFEF12F0B1EF12F0B4EFDA
:1025600012F0118EB5EF12F0119ED8902630126E37
:102570006BEF11F01200C8C038F0C9C039F0CAC002
:102580003AF0CBC03BF028C038F029C039F02AC05F
:102590003AF02BC03BF0810E2C6EFF0E2D6E38C032
:1025A0002EF039C02FF03AC030F03BC031F0180E99
:1025B000DFEF12F0D890313230322F322E32E82E47
:1025C000DAEF12F02E502C24366E000E2D20376ECE
:1025D00037BEF4EF12F0375009E1170E365CD8A081
:1025E000F4EF12F0F6EF12F000EF13F028C028F02D
:1025F00029C029F02AC02AF02BC02BF0C3EF13F01A
:1026000037BE05EF13F007EF13F077EF13F036C086
:102610002CF0FF0E2D6EFF0E2E6E7F0E2F6E000E15
:10262000306E2C6616EF13F01EEF13F0303430329C
:102630002F322E322D322C2E11EF13F02DC032F00E
:102640002EC033F02FC034F030C035F03250381483
:102650002C6E335039142D6E34503A142E6E355082
:102660003B142F6E2C502D102E102F10D8A43BEFA2
:1026700013F03DEF13F03FEF13F0F6EF12F038C018
:102680002CF039C02DF03AC02EF03BC02FF0200EB8
:102690004FEF13F0D8902F322E322D322C32E82EFD
:1026A0004AEF13F02C502D102E102F10D8B45BEFE2
:1026B00013F05DEF13F065EF13F03250382633500E
:1026C000392234503A2235503B22321C2C6E331CB6
:1026D0002D6E341C2E6E351C2F6E2C5038162D503E
:1026E00039162E503A162F503B16BBEF13F038C058
:1026F0002CF039C02DF03AC02EF03BC02FF0200E48
:1027000087EF13F0D8902F322E322D322C32E82E54
:1027100082EF13F02C502D102E102F10D8A493EF11
:1027200013F095EF13F09FEF13F0000E386E000ECC
:10273000396E000E3A6E000E3B6EBBEF13F0D89070
:1027400038342C6E39342D6E3A342E6E3B342F6E65
:102750002C502D102E102F10D8B4B1EF13F0B3EF72
:1027600013F0BBEF13F0000E386E000E396E800EC2
:102770003A6EBF0E3B6E38C028F039C029F03AC01F
:102780002AF03BC02BF01200096E0950D8B4CBEFF1
:1027900013F0CDEF13F0EFEF13F004BED4EF13F00E
:1027A000D2EF13F0EFEF13F001C005F002C006F016
:1027B00003C007F004C008F0051E061E071E081E11
:1027C000052A000E06220722082205C00BF006C0CB
:1027D0000CF007C00DF008C00EF0F7EF13F001C0C9
:1027E0000BF002C00CF003C00DF004C00EF001505D
:1027F000021003100410D8A400EF14F002EF14F03C
:102800000CEF14F0000E016E000E026E000E036E4F
:10281000000E046E9DEF14F0960E0A6E16EF14F083
:102820000A2AD8900E320D320C320B32000E0B14E5
:10283000056E000E0C14066E000E0D14076EFE0ED3
:102840000E14086E0550061007100810D8A42BEFC0
:1028500014F02DEF14F010EF14F03BEF14F00A2AEF
:10286000010E0B26000E0C220D220E22D8900E32E5
:102870000D320C320B32000E0B14056E000E0C14D0
:10288000066E000E0D14076EFF0E0E14086E055036
:10289000061007100810D8A450EF14F052EF14F0EF
:1028A0002FEF14F05AEF14F00A06D8900B360C36BE
:1028B0000D360E360DBE5FEF14F061EF14F069EFC8
:1028C00014F0020E0A6067EF14F069EF14F054EF91
:1028D00014F00AB06EEF14F070EF14F071EF14F012
:1028E0000D9ED8900A320AC005F0066A076A086A87
:1028F00005C008F0076A066A056A05500B12065003
:102900000C1207500D1208500E120950D8B48BEF5C
:1029100014F08DEF14F095EF14F004BE94EF14F062
:1029200092EF14F095EF14F00E8E0BC001F00CC076
:1029300002F00DC003F00EC004F01200000E166E7F
:10294000000E156E000E0F6E000E0E6EAAEF14F044
:10295000084A092A010E146E08C0F6FF09C0F7FFE5
:102960000800F550200AD8B4B8EF14F0BAEF14F00C
:10297000D7EF14F0F70E0A6EFF0E0B6E08C0F6FFCD
:1029800009C0F7FF0800F5500C6E0D6A0A500C26BE
:102990000B500D220D5009E1050E0C5CD8A0D3EFB1
:1029A00014F0D5EF14F0D7EF14F0000E146E14C02D
:1029B00010F0116A10501110D8A4E1EF14F0E3EFF9
:1029C00014F0A8EF14F0EDEF14F0000E0F6E010EEE
:1029D0000E6E084A092A22EF15F008C0F6FF09C05A
:1029E000F7FF0800F5500A6E0B6A0B50000AD8B4C6
:1029F000FCEF14F022EF15F00A502B0AD8B4E9EFDF
:102A000014F0060AD8B4E5EF14F022EF15F015C063
:102A100001F016C002F0000E046E0A0E036E5AECAE
:102A20001CF008C0F6FF09C0F7FF0800F550015E72
:102A3000000E025A300E0124156E000E0220166E92
:102A4000E9EF14F0D00E0A6EFF0E0B6E08C0F6FF11
:102A500009C0F7FF0800F5500C6E0D6A0A500C26ED
:102A60000B500D220D500AE10A0E0C5CD8A03BEF72
:102A700015F03EEF15F0010E3FEF15F0000E126E4F
:102A8000136A12501310D8A448EF15F04AEF15F04E
:102A900007EF15F00E500F10D8A451EF15F053EFBB
:102AA00015F061EF15F015C00AF016C00BF00A1E04
:102AB0000B1E0A4A0B2A0AC008F00BC009F065EF8A
:102AC00015F015C008F016C009F0120095EC1CF0C6
:102AD0007BEC1CF089EC1CF032EC1CF0010E6DEC70
:102AE0001CF019EC1CF0030E066E000E88EC1BF0B7
:102AF000100E066E080E076EF0EC19F0C282C2B21C
:102B000084EF15F086EF15F07FEF15F0C350C4CFBA
:102B1000C0F00001C16BC0C0C1F0C06BC011C26F7A
:102B2000C151C36F000E136E000E146E800E156E31
:102B3000440E166EC2C001F0C3C002F0036A046AFC
:102B4000000EC4EC13F001C00FF002C010F003C07F
:102B500011F004C012F0EEEC10F00FC028F010C01D
:102B600029F011C02AF012C02BF0000E2C6E000EBE
:102B70002D6EC80E2E6E420E2F6ED9EC0EF028C0B0
:102B8000C4F029C0C5F02AC0C6F02BC0C7F0010EA2
:102B9000066E010E88EC1BF0D80E0001B06F000E1F
:102BA000B16F010EB26F080EB36FC4C0B4F0C5C0F0
:102BB000B5F0C6C0B6F0C7C0B7F0F1EC1AF0D80E49
:102BC000066E000E076EF0EC19F0000E136E000E8C
:102BD000146EC80E156E420E166EC4C02CF0C5C021
:102BE0002DF0C6C02EF0C7C02FF0CB50016E026A88
:102BF000036A046A000EC4EC13F001C028F002C09E
:102C000029F003C02AF004C02BF0D9EC0EF028C044
:102C10000FF029C010F02AC011F02BC012F0EEEC1A
:102C200010F00FC041F010C042F011C043F012C0CC
:102C300044F02AEC16F04150BE6E030E0001C06F46
:102C4000970EE82EFED7C02FFCD700D07EEF15F0F0
:102C500007EF00F0433444344A6E4A50D8A433EFAF
:102C600016F035EF16F03FEF16F0000E416E000E35
:102C7000426E000E436E000E446EACEF16F041C083
:102C800045F042C046F043C047F044C048F0200E33
:102C90004FEF16F0D8904832473246324532E82E90
:102CA0004AEF16F04550496E438EFF0E4116FF0E57
:102CB0004216FF0E4316000E4416960E4A5E4ABE9A
:102CC00066EF16F064EF16F07CEF16F04A50800ABB
:102CD000970FD8B06EEF16F070EF16F072EF16F097
:102CE00035EF16F0D89044324332423241324A3EF8
:102CF00072EF16F094EF16F01F0E4A6482EF16F092
:102D000084EF16F08CEF16F035EF16F0D8904136C0
:102D10004236433644364A064A50D8A492EF16F05B
:102D200094EF16F086EF16F04950D8B49AEF16F0EB
:102D30009CEF16F0A4EF16F0441E431E421E416C99
:102D4000000E42224322442241C041F042C042F0E0
:102D500043C043F044C044F01200000E4114496ED9
:102D6000000E42144A6E800E43144B6E7F0E4414C4
:102D70004C6E49504A104B104C10D8A4C2EF16F0BC
:102D8000C4EF16F0CCEF16F0000E416E000E426E4E
:102D9000000E436E000E446E000E4514496E000E88
:102DA00046144A6E800E47144B6E7F0E48144C6ECC
:102DB00049504A104B104C10D8A4E1EF16F0E3EF45
:102DC00016F0EBEF16F0000E456E000E466E000E8C
:102DD000476E000E486E44AEF0EF16F0F2EF16F0BC
:102DE000FBEF16F0416C421ED8B0422A431ED8B009
:102DF000432A800E445648AE00EF17F002EF17F05A
:102E00000BEF17F0456C461ED8B0462A471ED8B0C7
:102E1000472A800E4856000E411A000E421A000E34
:102E2000431A800E441A000E451A000E461A000E70
:102E3000471A800E481A4550415C46504258475048
:102E4000435848504458D8B028EF17F02AEF17F0ED
:102E50002DEF17F0D8902EEF17F0D8801200CCC0CD
:102E60000BF0CDC00CF0CEC00DF0CFC00EF001C005
:102E70000BF002C00CF003C00DF004C00EF00BC04C
:102E800005F00CC006F00DC007F00EC008F0180EDB
:102E90004FEF17F0D8900832073206320532E82E8D
:102EA0004AEF17F00550096E0A6A09500A10D8A4B3
:102EB0005CEF17F05EEF17F07EEF17F0D8900B3451
:102EC000056E0C34066E0D34076E0E34086E055018
:102ED000061007100810D8A470EF17F072EF17F063
:102EE00078EF17F0000E026E020E016EADEF17F0D4
:102EF000000E026E030E016EADEF17F009280A10E6
:102F0000D8A485EF17F087EF17F0A9EF17F00BC0E3
:102F100005F00CC006F00DC007F00EC008F0090E59
:102F2000D8900536063607360836E82E90EF17F0AB
:102F30000550061007100810D8B4A1EF17F0A4EF41
:102F400017F0010EA5EF17F0000E016E026AADEF4B
:102F500017F0000E026E040E016E120001C008F0A0
:102F600002C009F003C00AF004C00BF00506D8A0A7
:102F70000606052806E10628D8A4C1EF17F0C3EF1E
:102F800017F0D0EF17F0000E026E000E016E18EF72
:102F900018F0084A092A0A4A0B2A0506D8A006068C
:102FA00008C0D9FF09C0DAFFDF50D8B4DAEF17F054
:102FB000DCEF17F007EF18F00AC0F6FF0BC0F7FFC1
:102FC0000800F5500009D8B4E8EF17F0EAEF17F061
:102FD00007EF18F005500610D8B4F1EF17F0F3EF33
:102FE00017F007EF18F008C0D9FF09C0DAFFDF506B
:102FF000076E0AC0F6FF0BC0F7FF0800F550071870
:10300000D8B405EF18F007EF18F0C9EF17F008C0B3
:10301000D9FF09C0DAFFDF50076E0AC0F6FF0BC008
:10302000F7FF0800F550075C016E026AD8A002069F
:10303000120003500410D8B420EF18F022EF18F05B
:103040002BEF18F003500410D8A429EF18F02BEF41
:1030500018F030EF18F00150AFEC1CF07DEF18F0D5
:1030600020EE04F00350D9260450DA22DE50DE10A0
:10307000D8B43DEF18F03FEF18F05AEF18F020EEFB
:1030800004F00350D9260450DA2210EE02F0035067
:10309000E1260450E222DE50E65CE650800A096E2A
:1030A000DE50800A0958D8B058EF18F05AEF18F0DF
:1030B0007DEF18F020EE02F00350D9260450DA22FA
:1030C000DECF05F0DDCF06F003C0D9FF04C0DAFF84
:1030D000DECF07F0DDCF08F005500724D96E06508B
:1030E0000820DA6E01C0DFFF20EE02F00350D9267F
:1030F0000450DA22DE2A000EDD2212000001D6A1E1
:1031000084EF18F086EF18F090EF18F013C00AF073
:1031100014C00BF011C00CF012C00DF066EC1BF0E7
:1031200016BE95EF18F097EF18F09DEF18F015C048
:103130001AF016C01BF0A1EF18F0000E1B6E000E67
:103140001A6E000E196E000E186EB3EF18F0000E16
:10315000026E200E016E11C003F012C004F019ECD3
:1031600018F0184A192A1A50185C1950800A176E5C
:103170001B50800A1758D8A0C0EF18F0C2EF18F003
:10318000A7EF18F00001D6B1C8EF18F0CAEF18F099
:10319000D4EF18F013C00AF014C00BF011C00CF0FB
:1031A00012C00DF066EC1BF013C001F014C002F069
:1031B000FEEC1BF01A500124116E1B500220126EFF
:1031C0001200000E066E04BEEAEF18F0E8EF18F0E9
:1031D000F0EF18F0036C041ED8B0042A010E066E3E
:1031E00002BEF7EF18F0F5EF18F0FDEF18F0016CE4
:1031F000021ED8B0022A010E061A000E086E000E3A
:10320000076E03500410D8B408EF19F00AEF19F054
:1032100032EF19F0010E056E12EF19F0D890033657
:103220000436052A04AE17EF19F019EF19F00EEF66
:1032300019F0D890073608360350015C0450025844
:10324000D8A025EF19F027EF19F02CEF19F0035053
:10325000015E0450025A0780D89004320332052ED2
:1032600019EF19F00650D8B438EF19F03AEF19F009
:103270003EEF19F0076C081ED8B0082A07C001F00D
:1032800008C002F01200000E066E02BE4CEF19F0EC
:103290004AEF19F052EF19F0016C021ED8B0022A61
:1032A000010E066E04BE59EF19F057EF19F05DEFED
:1032B00019F0036C041ED8B0042A03500410D8B4CB
:1032C00064EF19F066EF19F08AEF19F0010E056E40
:1032D0006EEF19F0D89003360436052A04AE73EF6A
:1032E00019F075EF19F06AEF19F00350015C045002
:1032F0000258D8A07EEF19F080EF19F084EF19F092
:103300000350015E0450025AD89004320332052E55
:1033100075EF19F00650D8B490EF19F092EF19F04C
:1033200096EF19F0016C021ED8B0022A01C001F01C
:1033300002C002F01200000E0114096E000E021409
:103340000A6E800E03140B6E7F0E04140C6E09506F
:103350000A100B100C10D8A4B0EF19F0B2EF19F04E
:10336000BAEF19F0000E016E000E026E000E036E31
:10337000000E046E000E0514096E000E06140A6E8F
:10338000800E07140B6E7F0E08140C6E09500A1085
:103390000B100C10D8A4CFEF19F0D1EF19F0D9EF22
:1033A00019F0000E056E000E066E000E076E000E80
:1033B000086E055001180FE1065002180CE1075085
:1033C000031809E108500418D8B4E9EF19F0EBEF3D
:1033D00019F0EEEF19F0D890EFEF19F0D880120045
:1033E000000E0A6E0DEF1AF00A500624086E000E49
:1033F0000720096E08C0F6FF09C0F7FFF86A070E3C
:10340000F76403D00800F55005D0F6CFE1FFF7CF01
:10341000E2FFE7509CEC1CF00A2A0A500624086ED2
:10342000000E0720096E08C0F6FF09C0F7FFF86A12
:10343000070EF76403D00800F55005D0F6CFE1FF82
:10344000F7CFE2FFE7500009D8A429EF1AF02BEFDD
:103450001AF0F4EF19F01200026E0250F00B036E36
:1034600002C001F00F0E01160138F00B046E03507C
:103470008C128C84030E016E980EE82EFED7012E5E
:10348000FCD78C94030E016E980EE82EFED7012E09
:10349000FCD70350FF0A8C1604508C128C84030E48
:1034A000016E980EE82EFED7012EFCD78C94030EE9
:1034B000016E980EE82EFED7012EFCD70450FF0AAD
:1034C0008C161200AAC0AEF0ABC0AFF0000E000127
:1034D000D16F000ED06F80EF1AF0A8C059F0A9C0CC
:1034E0005AF0AE0E5B6E000E5C6EACC05DF0ADC00F
:1034F0005EF0A4EC0CF059500001D0275A50D123B3
:10350000AEC0F6FFAFC0F7FF0800F5500009D8A421
:103510008CEF1AF08EEF1AF06DEF1AF0D0C0A8F011
:10352000D1C0A9F01200BF0E096EFF0E0A6E07C0CF
:103530000BF008C00CF009500B260A500C220C505E
:103540000AE11A0E0B5CD8A0A8EF1AF0ABEF1AF044
:10355000010EACEF1AF0000E0D6E0E6A0D500E103B
:10356000D8B4B5EF1AF0B7EF1AF0BEEF1AF0200E8C
:103570000710076E0850086EC2EF1AF007C007F078
:1035800008C008F0120003C007F004C008F001C032
:1035900009F002C00AF00750056E0850066E074A8F
:1035A000082A05C0F6FF06C0F7FFF86A09C0D9FF70
:1035B0000AC0DAFF094A0A2A070EF76403D0080096
:1035C000F55005D0F6CFE1FFF7CFE2FFE750DF6E11
:1035D000DF50D8A4EEEF1AF0F0EF1AF0CBEF1AF0AC
:1035E0001200B40E0001B86F000EB96FB0C0BAF08F
:1035F000B1C0BBF0000EBD6F000EBC6F000EBF6F00
:10360000000EBE6FBA0EA86F000EA96FB2C0AAF06E
:10361000B3C0ABF0B80EAC6F000EAD6F62EC1AF039
:103620000001BC51B025D96EBD51B121DA6E000E3A
:10363000DF6E1200010E076E200E01180210D8B4C2
:1036400024EF1BF026EF1BF03FEF1BF0F70E036E8D
:10365000FF0E046E01C005F002C006F003500526FF
:1036600004500622065009E1050E055CD8A03BEF88
:103670001BF03DEF1BF03FEF1BF0000E076E07C085
:1036800001F0026A1200000E451A000E461A000EE2
:10369000471A800E481A41C001F042C002F043C0F0
:1036A00003F044C004F045C005F046C006F047C032
:1036B00007F048C008F044EC0AF001C041F002C035
:1036C00042F003C043F004C044F01200000E106E3C
:1036D000000E0F6E77EF1BF00EC001F0026A0CC0F7
:1036E00003F00DC004F019EC18F00F4A102A0F5027
:1036F0000A24D96E10500B20DA6EDF500E6E0E5079
:10370000D8A485EF1BF087EF1BF06CEF1BF01200C5
:10371000076E000E086E0750D8A491EF1BF093EFD0
:103720001BF097EF1BF0800E086EA4EF1BF0070450
:10373000D8A49DEF1BF09FEF1BF0A3EF1BF0C00E72
:10374000086EA4EF1BF000F0065008260850A2EC0B
:103750001CF01200BF0E036EFF0E046E01C005F0D8
:1037600002C006F0035005260450062206500AE166
:103770001A0E055CD8A0BFEF1BF0C2EF1BF0010EC4
:10378000C3EF1BF0000E016E026A1200015002101E
:1037900003100410D8B4CFEF1BF0D1EF1BF0D9EF1A
:1037A0001BF0000E011A000E021A000E031A800E02
:1037B000041A01C001F002C002F003C003F004C00B
:1037C00004F01200D00E036EFF0E046E01C005F06F
:1037D00002C006F0035005260450062206500AE1F6
:1037E0000A0E055CD8A0F7EF1BF0FAEF1BF0010EF4
:1037F000FBEF1BF0000E016E026A120001C003F025
:1038000002C004F006EF1CF0014A022A01C0D9FFF1
:1038100002C0DAFFDF50D8A410EF1CF012EF1CF04A
:1038200004EF1CF00350015C016E04500258026E5C
:103830001200000EC26E000EC16E000EC06EC2906D
:10384000C30EC216CF0EC116C150F00B0E09C16EC9
:103850009280C08E380EC012C050F80B0109C06EA5
:10386000C2801200A8EC1CF0010EA2EC1CF0020EAB
:10387000A2EC1CF0060EA2EC1CF00C0EA2EC1CF04C
:10388000100EA2EC1CF02C0EA2EC1CF0120001EEAB
:1038900000F0500EEE6AE806FDE100EEC8F0200EE2
:1038A000EE6AE806FDE15F905F92000EF86E00019F
:1038B00066EF15F001500302F3CF05F0F4CF06F0E8
:1038C00001500402F350062602500302F35006266C
:1038D00005C001F006C002F01200016E0104D8A478
:1038E00074EF1CF076EF1CF079EF1CF0CA847AEFCD
:1038F0001CF0CA941200000ECA6E000ECC6E000EB0
:10390000CB6ECA94CA50FC0B0109CA6E310ECB6E45
:103910001200000EBD6E000EBE6EBD50F00B0C0905
:10392000BD6E000EBE6E94941200000ED36E700E2B
:10393000D312030ED3121200056E8C8005502CECAE
:103940001AF01200056E8C9005502CEC1AF0120043
:10395000000E956E8C92120006005F92110012000C
:020000040020DA
:08000000FFFFFFFFFFFFFFFF00
:020000040030CA
:0E000000000B191EFF8180FF0FC00FE00F40A4
:00000001FF
