:0400000007EF00F016
:0A0008000B82D0ED04F0B0EF04F01D
:100800000050574D202D204D4F544F520000026E86
:100810000250F00B036E02C001F00F0E01160138FA
:10082000F00B046E03508C128C84030E016E980E34
:10083000E82EFED7012EFCD78C94030E016E980E85
:10084000E82EFED7012EFCD70350FF0A8C16045069
:100850008C128C84030E016E980EE82EFED7012EAA
:10086000FCD78C94030E016E980EE82EFED7012E55
:10087000FCD70450FF0A8C161200000E0A6E50EFCF
:1008800004F00A500624086E000E0720096E08C006
:10089000F6FF09C0F7FF0800F550C0EC04F00A2A83
:1008A0000A500624086E000E0720096E08C0F6FFE5
:1008B00009C0F7FF0800F5500009D8A462EF04F062
:1008C00064EF04F041EF04F01200076E000E086EB2
:1008D0000750D8A46EEF04F070EF04F074EF04F04A
:1008E000800E086E81EF04F00704D8A47AEF04F0BC
:1008F0007CEF04F080EF04F0C00E086E81EF04F08E
:1009000000F0065008260850C6EC04F01200CCECAB
:1009100004F0010EC6EC04F0020EC6EC04F0060E64
:10092000C6EC04F00C0EC6EC04F0100EC6EC04F09D
:100930002C0EC6EC04F01200B9EC04F087EC04F0C5
:10094000030E066E000E65EC04F0010E066E080E36
:10095000076E3DEC04F000F0ABEF04F007EF00F0A1
:100960000B900B92000EF86E080EF76E00019CEFD4
:1009700004F0000ED36E700ED312030ED3121200C9
:10098000056E8C80055007EC04F01200056E8C900B
:10099000055007EC04F01200000E956E8C921200C8
:0609A00006000B9211009D
:020000040020DA
:08000000FFFFFFFFFFFFFFFF00
:020000040030CA
:0E000000000B191EFF8180FF0FC00FE00F40A4
:00000001FF
