:0400000007EF00F016
:10000800278213ED01F033EF01F076EC01F05CECA0
:1000180001F066EC01F04DEC01F02650030B136E75
:1000280013C00DF0010E0E6E0D2A1DEF00F0D890D2
:100038000E360D2E1BEF00F00E50FF0A8C6E110EBF
:10004800076EC60E066E030E096EE80E086EA7EC64
:1000580000F00650226E030E046EE80E036E110EB9
:10006800026EC60E016EE1EC00F001C006F002C09F
:1000780007F0000E096E640E086EA7EC00F006503B
:10008800236E030E046EE80E036E110E026EC60E8A
:10009800016EE1EC00F001C011F002C012F0000E98
:1000A800046E640E036E11C001F012C002F0E1ECA0
:1000B80000F001C006F002C007F0000E096E0A0E3B
:1000C800086EA7EC00F00650246E030E046EE80ECE
:1000D800036E110E026EC60E016EE1EC00F001C057
:1000E80011F002C012F0000E046E640E036E11C00F
:1000F80001F012C002F0E1EC00F001C00FF002C004
:1001080010F00FC001F010C002F0000E046E0A0ECD
:10011800036EE1EC00F00150256E220E1324D96E17
:10012800DA6A000EDA22DF500D6E0E6A140E0D2404
:10013800D96E000E0E20DA6EDF50FF0A8A6E11EFBC
:1001480000F007EF00F0000E0B6E000E0A6E08506C
:100158000910D8B4B2EF00F0B4EF00F0DCEF00F013
:10016800010E0C6EBCEF00F0D890083609360C2A48
:1001780009AEC1EF00F0C3EF00F0B8EF00F0D8907F
:100188000A360B360850065C09500758D8A0CFEF3E
:1001980000F0D1EF00F0D6EF00F00850065E0950ED
:1001A800075A0A80D890093208320C2EC3EF00F0A3
:1001B8000AC006F00BC007F0120003500410D8B4B0
:1001C800E8EF00F0EAEF00F00EEF01F0010E056E27
:1001D800F2EF00F0D89003360436052A04AEF7EFA4
:1001E80000F0F9EF00F0EEEF00F00350015C04506E
:1001F8000258D8A002EF01F004EF01F008EF01F077
:100208000350015E0450025AD89004320332052E7E
:10021800F9EF00F001C001F002C002F01200060080
:10022800F2AA19EF01F01BEF01F031EF01F0F2A48F
:1002380020EF01F022EF01F031EF01F0262A040E41
:100248002618D8A42AEF01F02CEF01F02EEF01F0C8
:10025800000E266E060ED66EF29427921100DE0E60
:10026800F66E020EF76E000EF86E00EE14F010EE49
:100278000EF00900F5CFEEFFE550E150FAE1266AED
:10028800256A246A236A226A27902792000109EFC7
:1002980000F0000ED56ED59ED58CD59AD598D596FA
:1002A800D550F80B0209D56E060ED66ED58E120003
:1002B800000ED06E000EF26ED09EF28EF28CF28A94
:1002C800F2941200000E936EF00E9516000E8A6ED0
:1002D800F00E8C1612007E306D4F275B5F467F6FE5
:1002E800C881F188000ED36E700ED312030ED3129C
:0202F8001200F2
:020000040020DA
:08000000FFFFFFFFFFFFFFFF00
:020000040030CA
:0E000000000B191EFF8080FF0FC00FE00F40A5
:00000001FF
