:0400000007EF00F016
:0A0008005E8220ED18F0E3EF17F020
:1008000000414443204D6561737572653A20007460
:10081000656D70203D20252E3266204300696E668E
:10082000006E616E0000000E0001816F57C084F001
:1008300058C085F059C086F05AC087F087BF25EFB1
:1008400004F023EF04F039EF04F0010E816F84C04F
:1008500001F085C002F086C003F087C004F096EC7A
:1008600017F001C084F002C085F003C086F004C018
:1008700087F0000E0001836F000E826FCFC071F011
:10088000D0C072F08151D8B448EF04F04AEF04F0C0
:100890005EEF04F08151D8A450EF04F052EF04F061
:1008A00058EF04F0000E676F2B0E666F5CEF04F0DC
:1008B000000E676F2D0E666F66C081F084C001F078
:1008C00085C002F086C003F087C004F018EC14F075
:1008D00001040210D8A46FEF04F071EF04F0A4EF4C
:1008E00004F000018151D8B478EF04F07AEF04F0FD
:1008F00083EF04F081C000F17107D8A07207000EE9
:10090000836F010E826F000E8225016E010E83211E
:10091000026E1D0E036E080E046E76EC17F00001D9
:10092000FD0E7127FF0E722355C011F056C012F054
:10093000000E136E010E146E71C015F072C016F029
:10094000B4EC15F00EEF09F084C001F085C002F0A0
:1009500086C003F087C004F018EC14F001500210B8
:10096000D8A4B5EF04F0B7EF04F0D7EF04F000011E
:100970008151D8B4BEEF04F0C0EF04F0C9EF04F029
:1009800081C000F17107D8A07207000E836F010EBD
:10099000826F000E8225016E010E8321026E210EF0
:1009A000036E080E046E76EC17F08FEF04F0000E65
:1009B0000001886F000E896F800E8A6F3F0E8B6F6B
:1009C000000E706F000E6F6F84C001F085C002F0E2
:1009D00086C003F087C004F0000E056E000E066EA0
:1009E000000E076E000E086E5FEC15F0D8B0FBEF3E
:1009F00004F0FDEF04F0DCEF05F00AEF05F073C042
:100A000088F074C089F075C08AF076C08BF0000160
:100A10006F4B702B88C00FF089C010F08AC011F0A6
:100A20008BC012F0000E136E000E146E200E156EA9
:100A3000410E166E6FEC0BF00FC073F010C074F027
:100A400011C075F012C076F000017351845D016E23
:100A500074518559026E75518659036E76518759C6
:100A6000046E63EC16F004BE41EF05F00450031071
:100A7000021009E1020E015CD8A041EF05F043EF3E
:100A800005F0FFEF04F073C028F074C029F075C0C2
:100A90002AF076C02BF084C02CF085C02DF086C0E3
:100AA0002EF087C02FF096EC13F0D8A05AEF05F087
:100AB0005CEF05F0FFEF04F000018851845D016EEA
:100AC00089518559026E8A518659036E8B51875917
:100AD000046E63EC16F004BE7BEF05F004500310C7
:100AE000021007E1020E015CD8B079EF05F07BEF50
:100AF00005F0C3EF05F088C084F089C085F08AC096
:100B000086F08BC087F0DCEF05F088C028F089C044
:100B100029F08AC02AF08BC02BF0000E2C6E000E3C
:100B20002D6E200E2E6E410E2F6E84EC0DF028C01F
:100B300088F029C089F02AC08AF02BC08BF0000110
:100B40006F07D8A070078851845D016E895185595F
:100B5000026E8A518659036E8B518759046E63EC7D
:100B600016F004BEC1EF05F004500310021007E1B7
:100B7000020E015CD8B0BFEF05F0C1EF05F0C3EF86
:100B800005F07BEF05F084C028F085C029F086C011
:100B90002AF087C02BF088C02CF089C02DF08AC0C5
:100BA0002EF08BC02FF096EC13F0D8A0DAEF05F002
:100BB000DCEF05F085EF05F05BC069F069C06AF015
:100BC0000001D2BFE6EF05F0E8EF05F0EEEF05F02B
:100BD000D1C062F0D2C063F0F2EF05F0000E636F97
:100BE000060E626F62C06DF063C06EF06D4B6E2BCF
:100BF000660E6A19D8A4FFEF05F001EF06F021EFA9
:100C000006F070BF08EF06F006EF06F014EF06F0EE
:100C1000000E886F000E896F800E8A6F3F0E8B6FFB
:100C2000000E706F000E6F6F670E6919D8B41BEF5E
:100C300006F01DEF06F021EF06F06F516D277051A1
:100C40006E23000E786F000E776F84C079F085C038
:100C50007AF086C07BF087C07CF088C073F089C0D2
:100C600074F08AC075F08BC076F0B2EF06F079C0F0
:100C700028F07AC029F07BC02AF07CC02BF088C015
:100C80002CF089C02DF08AC02EF08BC02FF084ECA0
:100C90000DF028C041F029C042F02AC043F02BC01B
:100CA00044F085EC10F041C07DF042C07EF043C0BE
:100CB0007FF044C080F07DC001F07EC002F07FC0B4
:100CC00003F080C004F013EC13F001C06BF002C01D
:100CD0006CF079C028F07AC029F07BC02AF07CC083
:100CE0002BF07DC013F07EC014F07FC015F080C0E3
:100CF00016F088C00FF089C010F08AC011F08BC0C8
:100D000012F06FEC0BF00FC02CF010C02DF011C0E2
:100D10002EF012C02FF00FEC17F028C079F029C088
:100D20007AF02AC07BF02BC07CF088C028F089C004
:100D300029F08AC02AF08BC02BF0000E2C6E000E1A
:100D40002D6E200E2E6E410E2F6E84EC0DF028C0FD
:100D500088F029C089F02AC08AF02BC08BF00001EE
:100D6000774B782B6D51775D7851800A5C6E6E51B0
:100D7000800A5C58D8A0BFEF06F0C1EF06F037EF4D
:100D800006F088C00FF089C010F08AC011F08BC047
:100D900012F0000E136E000E146EA00E156E400EB3
:100DA000166E6FEC0BF00FC07DF010C07EF011C01E
:100DB0007FF012C080F079C028F07AC029F07BC0A3
:100DC0002AF07CC02BF07DC02CF07EC02DF07FC0BF
:100DD0002EF080C02FF096EC13F0D8B0F2EF06F0B2
:100DE000F4EF06F0FFEF06F0000E00017D6F000E3D
:100DF0007E6F000E7F6F000E806F28EF07F079C0C6
:100E000001F07AC002F07BC003F07CC004F07DC02A
:100E100005F07EC006F07FC007F080C008F05FECF0
:100E200015F0D8A016EF07F018EF07F028EF07F03D
:100E300000016BB11EEF07F020EF07F028EF07F07D
:100E4000000E7D6F000E7E6F000E7F6F000E806FB4
:100E500084C001F085C002F086C003F087C004F0B2
:100E60007DC005F07EC006F07FC007F080C008F0AE
:100E70000FEC09F001C079F002C07AF003C07BF0FA
:100E800004C07CF079C028F07AC029F07BC02AF039
:100E90007CC02BF0000E136E000E146E200E156E2B
:100EA000410E166E73C00FF074C010F075C011F0D3
:100EB00076C012F06FEC0BF00FC02CF010C02DF0CC
:100EC00011C02EF012C02FF096EC13F0D8A06BEFEB
:100ED00007F06DEF07F096EF07F000016F4B702BF6
:100EE00073C00FF074C010F075C011F076C012F02E
:100EF000000E136E000E146E200E156E410E166E4F
:100F00006FEC0BF00FC073F010C074F011C075F0EF
:100F100012C076F0660E00016A19D8A492EF07F0AD
:100F200094EF07F096EF07F06D4B6E2B73C088F0CF
:100F300074C089F075C08AF076C08BF06FC060F025
:100F400070C061F0000E0001686F000E656F000E4A
:100F5000646F000E786F000E776F94EF08F079C021
:100F600028F07AC029F07BC02AF07CC02BF088C022
:100F70002CF089C02DF08AC02EF08BC02FF084ECAD
:100F80000DF028C041F029C042F02AC043F02BC028
:100F900044F085EC10F041C07DF042C07EF043C0CB
:100FA0007FF044C080F07DC001F07EC002F07FC0C1
:100FB00003F080C004F013EC13F002BEEBEF07F077
:100FC000025007E10A0E015CD8B0E9EF07F0EBEF41
:100FD00007F0FBEF07F07DC001F07EC002F07FC09C
:100FE00003F080C004F013EC13F001C06BF002C0FA
:100FF0006CF000EF08F0000E00016C6F090E6B6FD3
:1010000000016851D8A407EF08F009EF08F031EFAC
:1010100008F061BF10EF08F00EEF08F031EF08F0B4
:10102000000E8225D96E010E8321DA6E2E0EDF6E40
:10103000824B832B7107D8A07207010E686F31EFC6
:1010400008F0000E8225D96E010E8321DA6E300E73
:10105000DF6E824B832B7107D8A072076407D8A07C
:10106000650764516511D8A438EF08F03AEF08F02D
:1010700021EF08F0000E8225D96E010E8321DA6E71
:101080006B51300FDF6E824B832B7107D8A0720734
:1010900079C028F07AC029F07BC02AF07CC02BF000
:1010A0007DC013F07EC014F07FC015F080C016F034
:1010B00088C00FF089C010F08AC011F08BC012F008
:1010C0006FEC0BF00FC02CF010C02DF011C02EF003
:1010D00012C02FF00FEC17F028C079F029C07AF079
:1010E0002AC07BF02BC07CF088C028F089C029F092
:1010F0008AC02AF08BC02BF0000E2C6E000E2D6ED5
:10110000200E2E6E410E2F6E84EC0DF028C088F05C
:1011100029C089F02AC08AF02BC08BF0000160073B
:10112000D8A06107774B782B6D51775D7851800A95
:101130005C6E6E51800A5C58D8B0A1EF08F0A3EF46
:1011400008F0B1EF08F083BFAFEF08F0835109E179
:101150004B0E825DD8A0AFEF08F0B1EF08F0AFEF13
:1011600007F0000E786F4F0E776F000E7725D96E5F
:10117000010E7821DA6EDF6A000E5C6E010E5D6E84
:1011800082515C5E83515D5A77515C24016E7851C7
:101190005D20026E000E036E010E046E82C005F02B
:1011A00083C006F0E7EC16F000018251775D826F94
:1011B00083517859836F8151D8A4E1EF08F0E4EFAF
:1011C00008F0010EE5EF08F0000E776F786B8151A3
:1011D000D8B4EDEF08F0EFEF08F0FAEF08F082076F
:1011E000D8A08307000E8225D96E010E8321DA6E06
:1011F00081C0DFFF7751715F7851725B55C011F08C
:1012000056C012F0000E8225136E010E8321146E5B
:1012100071C015F072C016F0B4EC15F01200045055
:10122000800B0D6E045004240F6E03AE1AEF09F00C
:101230001CEF09F01DEF09F00F800F50D8B423EF19
:1012400009F025EF09F03AEF09F00F28D8A42BEFA9
:1012500009F02DEF09F035EF09F0000E016E000ED8
:10126000026E000E036E000E046E038E000E046EFE
:1012700042EF09F0000E016E000E026E000E036ECA
:10128000000E046E0850800B0E6E0D500E18D8B470
:101290004CEF09F04EEF09F04FEF09F00D8C0850BC
:1012A00008240E6E07AE57EF09F059EF09F05AEF18
:1012B00009F00E800E50D8B460EF09F062EF09F02B
:1012C00077EF09F00E28D8A468EF09F06AEF09F06B
:1012D00072EF09F0000E056E000E066E000E076E2E
:1012E000000E086E078E000E086E7FEF09F0000EEC
:1012F000056E000E066E000E076E000E086E0F5093
:101300000E5CD8B086EF09F088EF09F0AFEF09F076
:101310000DAC8DEF09F08FEF09F091EF09F0800E21
:101320000D1A0FC010F00EC00FF010C00EF001C06B
:1013300010F005C001F010C005F002C010F006C0AA
:1013400002F010C006F003C010F007C003F010C098
:1013500007F004C010F008C004F010C008F0000E40
:10136000106E0F500EC009F00A6A095E000E0A5A8C
:101370000ABEC4EF09F00A5009E11A0E095CD8A0B0
:10138000C4EF09F0C6EF09F0FDEF09F001500210BB
:1013900003100410D8A4CFEF09F0D2EF09F0010E2A
:1013A000D3EF09F0000E106E000E016E000E026EFB
:1013B000000E036E000E046E0EC00FF006EF0AF072
:1013C00010A0E5EF09F0E7EF09F0EDEF09F0D89094
:1013D00010300109106EEFEF09F0D890103201A023
:1013E000F4EF09F0F6EF09F0F7EF09F0108E04348E
:1013F00004320332023201320F2A0E500F5CD8A0A1
:1014000004EF0AF006EF0AF0E0EF09F00DBC0BEF75
:101410000AF00DEF0AF04DEF0AF00F50D8A413EFC9
:101420000AF015EF0AF01FEF0AF0000E016E000E31
:10143000026E000E036E000E046E6EEF0BF0055090
:10144000012606500222075003220850042204A05D
:101450002CEF0AF02EEF0AF0DAEF0AF010A033EFCB
:101460000AF035EF0AF03BEF0AF0D890103001098E
:10147000106E3DEF0AF0D890103201A042EF0AF052
:1014800044EF0AF045EF0AF0108E043404320332C0
:10149000023201320F2ADAEF0AF00550015C0650E1
:1014A0000258075003580450800A096E0850800AF9
:1014B0000958D8B05EEF0AF060EF0AF08BEF0AF03F
:1014C0000150055C096E025006580A6E0350075819
:1014D0000B6E045008580C6EFF0E0924016EFF0EAF
:1014E0000A20026EFF0E0B20036EFF0E0C20046E0E
:1014F000800E0D1A106C1050D8A481EF0AF083EF03
:101500000AF093EF0AF0010E0126000E02220322D8
:10151000042293EF0AF00550015E0650025A07506C
:10152000035A0850045A0150021003100410D8A4A2
:101530009CEF0AF09EEF0AF0D3EF0AF01050D8A407
:10154000A4EF0AF0A6EF0AF0D3EF0AF0000E016E46
:10155000000E026E000E036E000E046E6EEF0BF0B6
:10156000D890013602360336043610AEBAEF0AF0D0
:10157000BCEF0AF0BDEF0AF0018010A0C2EF0AF044
:10158000C4EF0AF0C8EF0AF0D8801036CAEF0AF0AC
:10159000D89010360F50D8B4D0EF0AF0D2EF0AF03E
:1015A000D3EF0AF00F0603AED8EF0AF0DAEF0AF035
:1015B000B0EF0AF0000E0E6E10AEE1EF0AF0E3EFAE
:1015C0000AF0FBEF0AF010C009F07F0E0916D8B43C
:1015D000ECEF0AF0EEEF0AF0F2EF0AF0010E0E6EF9
:1015E000FBEF0AF001A0F7EF0AF0F9EF0AF0FBEFCA
:1015F0000AF0EEEF0AF00E50D8B401EF0BF003EF53
:101600000BF02EEF0BF0010E0126000E022203223A
:10161000042204A00EEF0BF010EF0BF02EEF0BF0F6
:1016200001C009F002C00AF003C00BF004C00CF0C6
:101630000C340C320B320A32093209C001F00AC0F4
:1016400002F00BC003F00CC004F00F28D8B42BEF4D
:101650000BF02DEF0BF02EEF0BF00F2A0F28D8B464
:1016600034EF0BF036EF0BF03EEF0BF00F50D8A439
:101670003CEF0BF03EEF0BF050EF0BF0000E016E65
:10168000000E026E000E036E000E046E0F50D8A402
:101690004CEF0BF04EEF0BF050EF0BF0000E0D6E19
:1016A0000FA055EF0BF057EF0BF05AEF0BF0038E36
:1016B0005BEF0BF0039ED8900F30046E0DAE63EF1E
:1016C0000BF065EF0BF066EF0BF0048E01C001F03C
:1016D00002C002F003C003F004C004F01200125074
:1016E000800B1B6E12501224216E11AE7AEF0BF09C
:1016F0007CEF0BF07DEF0BF021802150D8B483EF0D
:101700000BF085EF0BF098EF0BF02128D8A48BEFAE
:101710000BF08DEF0BF095EF0BF0000E0F6E000E3F
:10172000106E000E116E000E126E118EA0EF0BF0F7
:10173000000E0F6E000E106E000E116E000E126E77
:101740001650800B1B1A16501624206E15AEABEFE8
:101750000BF0ADEF0BF0AEEF0BF020802050D8B4C3
:10176000B4EF0BF0B6EF0BF0C9EF0BF02028D8A4C4
:10177000BCEF0BF0BEEF0BF0C6EF0BF0000E136EDC
:10178000000E146E000E156E000E166E158ED1EF43
:101790000BF0000E136E000E146E000E156E000E90
:1017A000166E2050D8B4D7EF0BF0D9EF0BF0E1EF65
:1017B0000BF02150D8A4DFEF0BF0E1EF0BF0EBEFD3
:1017C0000BF0000E0F6E000E106E000E116E000E6C
:1017D000126E83EF0DF015500F02F3CF26F0F4CF09
:1017E00027F026501C6E1D6A1E6A1F6A2750226E43
:1017F000236A246A256A14501002F3CF26F0F4CF2E
:1018000027F026501C26000E1D221E221F222750C4
:101810002226000E23222422252213501102F3CF68
:1018200026F0F4CF27F026501C26000E1D221E2283
:101830001F2227502226000E2322242225221EC0EA
:101840001FF01DC01EF01CC01DF01C6A13501002BA
:10185000F3CF26F0F4CF27F026501C2627501D2268
:10186000000E1E22000E1F2214500F02F3CF26F08E
:10187000F4CF27F026501C2627501D22000E1E22D2
:10188000000E1F221EC01FF01DC01EF01CC01DF048
:101890001C6A13500F02F3CF26F0F4CF27F0265026
:1018A0001C2627501D22000E1E22000E1F2215503E
:1018B0001002F3CF26F0F4CF27F02650222627502F
:1018C0002322000E2422000E252214501102F3CFF1
:1018D00026F0F4CF27F02650222627502322000E90
:1018E0002422000E252215501102F3CF26F0F4CF4A
:1018F00027F02650176E2750186E196A1A6A19C0F9
:101900001AF018C019F017C018F0176A17502226DD
:1019100018502322195024221A5025221CC017F0D7
:101920001DC018F01EC019F01FC01AF0190E9EEF4E
:101930000CF0D8901A32193218321732E82E99EF7B
:101940000CF01750222618502322195024221A5026
:1019500025221EC01FF01DC01EF01CC01DF01C6AF9
:10196000205021C017F0186A1726000E1822820E88
:101970001724266EFF0E1820276ED4EF0CF0D89097
:1019800022362336243625361FAEC9EF0CF0CBEFB6
:101990000CF0CCEF0CF02280D8901C361D361E3691
:1019A0001F362606D8A0270624AED9EF0CF0DBEFB1
:1019B0000CF0BFEF0CF0000E206E1FAEE2EF0CF04B
:1019C000E4EF0CF008EF0DF0FF0E1C14176EFF0E85
:1019D0001D14186EFF0E1E14196E7F0E1F141A6E42
:1019E0001750181019101A10D8B4F9EF0CF0FBEFBB
:1019F0000CF0FFEF0CF0010E206E08EF0DF022A0AE
:101A000004EF0DF006EF0DF008EF0DF0FBEF0CF01A
:101A10002050D8B40EEF0DF010EF0DF034EF0DF0B4
:101A2000010E2226000E23222422252225A01BEFB0
:101A30000DF01DEF0DF034EF0DF022C017F023C0B4
:101A400018F024C019F025C01AF01A341A321932CD
:101A50001832173217C022F018C023F019C024F032
:101A60001AC025F0264A272A27BE3FEF0DF027503F
:101A700008E12628D8A03FEF0DF041EF0DF04BEF25
:101A80000DF0000E226E000E236E800E246E7F0E6F
:101A9000256E79EF0DF027BE58EF0DF0275006E1C7
:101AA0002604D8B056EF0DF058EF0DF064EF0DF0AE
:101AB000000E226E000E236E000E246E000E256EA8
:101AC000000E1B6E79EF0DF026C021F0FF0E2216DE
:101AD000FF0E23167F0E2416000E251621A073EF8D
:101AE0000DF075EF0DF076EF0DF0248ED8902130CB
:101AF000256E1B50251222C00FF023C010F024C009
:101B000011F025C012F012002B50800B386E2B50B4
:101B10002B243F6E2AAE8FEF0DF091EF0DF092EF78
:101B20000DF03F803F50D8B498EF0DF09AEF0DF0D4
:101B3000AFEF0DF03F28D8A4A0EF0DF0A2EF0DF00D
:101B4000AAEF0DF0000E286E000E296E000E2A6E10
:101B5000000E2B6E2A8E000E2B6EB7EF0DF0000ECE
:101B6000286E000E296E000E2A6E000E2B6E2F506E
:101B7000800B381A2F502F24406E2EAEC2EF0DF07E
:101B8000C4EF0DF0C5EF0DF040804050D8B4CBEF5E
:101B90000DF0CDEF0DF0E2EF0DF04028D8A4D3EF1B
:101BA0000DF0D5EF0DF0DDEF0DF0000E2C6E000EF8
:101BB0002D6E000E2E6E000E2F6E2E8E000E2F6ECE
:101BC000EAEF0DF0000E2C6E000E2D6E000E2E6E44
:101BD000000E2F6E2C502D102E102F10D8A4F3EFC6
:101BE0000DF0F5EF0DF00DEF0EF0000E286E000E6B
:101BF000296E000E2A6E000E2B6E800E2A127F0EAA
:101C00002B1238502B1228C028F029C029F02AC0E6
:101C10002AF02BC02BF050EF0FF03F50D8A413EF59
:101C20000EF015EF0EF01FEF0EF0000E286E000EF6
:101C3000296E000E2A6E000E2B6E50EF0FF04050F2
:101C40003FC030F0316A305E000E315A7F0E3024D2
:101C5000396E000E31203A6E28C034F029C035F0BC
:101C60002AC036F02BC037F0000E286E000E296E09
:101C7000000E2A6E000E2B6E000E3B6E000E3C6EA8
:101C8000000E3D6E000E3E6E000E406E80EF0EF0B8
:101C90004050D8B44EEF0EF050EF0EF067EF0EF05C
:101CA000D8903436353636363736D89028362936F9
:101CB0002A362B363EAE5FEF0EF061EF0EF062EF8C
:101CC0000EF02880D8903B363C363D363E362C50C0
:101CD000345C2D5035582E5036582F503758D8A0D8
:101CE00074EF0EF076EF0EF07FEF0EF03E8C2C507E
:101CF000345E2D50355A2E50365A2F50375A402ABE
:101D0000190E406486EF0EF088EF0EF048EF0EF0EB
:101D10003450351036103710D8B491EF0EF093EFE1
:101D20000EF0ABEF0EF03B80ABEF0EF0D890283604
:101D300029362A362B363EAEA0EF0EF0A2EF0EF07B
:101D4000A3EF0EF02880D8903B363C363D363E3629
:101D50003906D8A03A062AAEB0EF0EF0B2EF0EF078
:101D600096EF0EF0000E406E3EAEB9EF0EF0BBEFF8
:101D70000EF0DFEF0EF0FF0E3B14306EFF0E3C1442
:101D8000316EFF0E3D14326E7F0E3E14336E3050B6
:101D9000311032103310D8B4D0EF0EF0D2EF0EF075
:101DA000D6EF0EF0010E406EDFEF0EF028A0DBEF55
:101DB0000EF0DDEF0EF0DFEF0EF0D2EF0EF0405040
:101DC000D8B4E5EF0EF0E7EF0EF00BEF0FF0010ED9
:101DD0002826000E29222A222B222BA0F2EF0EF019
:101DE000F4EF0EF00BEF0FF028C030F029C031F007
:101DF0002AC032F02BC033F0333433323232313236
:101E0000303230C028F031C029F032C02AF033C05F
:101E10002BF0394A3A2A3ABE16EF0FF03A5008E151
:101E20003928D8A016EF0FF018EF0FF023EF0FF0BE
:101E3000000E3A6E3968000E286E000E296E000EF4
:101E40002A6E000E2B6E3ABE30EF0FF03A5006E1CC
:101E50003904D8B02EEF0FF030EF0FF03EEF0FF057
:101E6000000E3A6E000E396E000E286E000E296EBE
:101E7000000E2A6E000E2B6E000E386E39C03FF039
:101E80003FA045EF0FF047EF0FF04AEF0FF02A8E1B
:101E90004BEF0FF02A9ED8903F302B6E01EF0EF0E3
:101EA00012008EC0D9FF8FC0DAFFDECFF6FFDDCF84
:101EB000F7FF0800F550250AD8A461EF0FF063EF93
:101EC0000FF070EF10F08EC0D9FF8FC0DAFFDE2A5E
:101ED000000EDD22000E0001D06F000ECF6FCFC0CC
:101EE000D3F0D169D2698EC0D9FF8FC0DAFFDECFBF
:101EF000F6FFDDCFF7FF0800F5502E0AD8A483EFD8
:101F00000FF085EF0FF09AEF0FF08EC0D9FF8FC062
:101F1000DAFFDE2A000EDD228EC007F08FC008F047
:101F200090C009F091C00AF0FCEC14F007C0D1F0A9
:101F300008C0D2F08EC0D9FF8FC0DAFFDECF99F093
:101F4000DDCF9AF099C0F6FF9AC0F7FF0800F5CFF1
:101F500098F0B7EF0FF0994B9A2BD1EF0FF06C0E72
:101F6000986FD1EF0FF0000E986FD1EF0FF00001D6
:101F70009851926F936B9351000AD8B4C2EF0FF04F
:101F8000B3EF0FF092514C0AD8B4ABEF0FF02A0A1E
:101F9000D8B4AFEF0FF00A0AD8B4ABEF0FF0B3EF3D
:101FA0000FF099C0F6FF9AC0F7FF0800F550660AD7
:101FB000D8A4DDEF0FF0DFEF0FF067EF10F015EFB3
:101FC00010F090C0D9FF91C0DAFFDFCF92F0040E7D
:101FD000DE26DFCF93F0000EDD2292C0D9FF93C042
:101FE000DAFFDECF94F0DECF95F0DECF96F0DECFD5
:101FF00097F02AEF10F090C0D9FF91C0DAFFDFCF41
:1020000092F0040EDE26DFCF93F0000EDD2292C0A8
:10201000D9FF93C0DAFFDECF94F0DECF95F0DECFAC
:1020200096F0DECF97F02AEF10F09851926F936BF5
:102030009351000AD8B41FEF10F02AEF10F092511C
:102040004C0AD8B4FBEF0FF0200AD8B4E1EF0FF040
:102050002AEF10F0010E9925926F000E9A21936FCE
:102060008EC0D9FF8FC0DAFF92C0DEFF93C0DDFFC4
:1020700051EF10F08CC055F08DC056F094C057F061
:1020800095C058F096C059F097C05AF099C0F6FF25
:102090009AC0F7FF0800F5CF5BF013EC04F084EF73
:1020A00010F099C0F6FF9AC0F7FF0800F550926F44
:1020B000936B9351000AD8B460EF10F067EF10F003
:1020C0009251660AD8B43AEF10F067EF10F08EC064
:1020D000D9FF8FC0DAFFDE2A000EDD2284EF10F078
:1020E0008EC0D9FF8FC0DAFFDECFF6FFDDCFF7FF5E
:1020F0000800F550016E026A8CC003F08DC004F038
:1021000097EC14F067EF10F01200C7C051F0C8C090
:1021100052F0C9C053F0CAC054F041C051F042C09F
:1021200052F043C053F044C054F0810E456EFF0E90
:10213000466E51C047F052C048F053C049F054C0F9
:102140004AF0180EA9EF10F0D8904A3249324832BE
:102150004732E82EA4EF10F0475045244F6E000E92
:102160004620506E50BEBEEF10F0505009E1170EE1
:102170004F5CD8A0BEEF10F0C0EF10F0CAEF10F027
:1021800041C041F042C042F043C043F044C044F07B
:102190008DEF11F050BECFEF10F0D1EF10F041EF06
:1021A00011F04FC045F0FF0E466EFF0E476E7F0EDA
:1021B000486E000E496E4566E0EF10F0E8EF10F053
:1021C00049344932483247324632452EDBEF10F06F
:1021D00046C04BF047C04CF048C04DF049C04EF0EF
:1021E0004B505114456E4C505214466E4D50531482
:1021F000476E4E505414486E4550461047104810D4
:10220000D8A405EF11F007EF11F009EF11F0C0EFBE
:1022100010F051C045F052C046F053C047F054C0D2
:1022200048F0200E19EF11F0D8904832473246326C
:102230004532E82E14EF11F0455046104710481073
:10224000D8B425EF11F027EF11F02FEF11F04B501C
:1022500051264C5052224D5053224E5054224B1C6A
:10226000456E4C1C466E4D1C476E4E1C486E4550CC
:10227000511646505216475053164850541685EF83
:1022800011F051C045F052C046F053C047F054C061
:1022900048F0200E51EF11F0D890483247324632C4
:1022A0004532E82E4CEF11F04550461047104810CB
:1022B000D8A45DEF11F05FEF11F069EF11F0000E9F
:1022C000516E000E526E000E536E000E546E85EF6E
:1022D00011F0D8905134456E5234466E5334476EE7
:1022E0005434486E4550461047104810D8B47BEF20
:1022F00011F07DEF11F085EF11F0000E516E000E20
:10230000526E800E536EBF0E546E51C041F052C0DB
:1023100042F053C043F054C044F01200096E09501B
:10232000D8B495EF11F097EF11F0B9EF11F004BEAA
:102330009EEF11F09CEF11F0B9EF11F001C005F024
:1023400002C006F003C007F004C008F0051E061E18
:10235000071E081E052A000E06220722082205C0B5
:102360000BF006C00CF007C00DF008C00EF0C1EF76
:1023700011F001C00BF002C00CF003C00DF004C05E
:102380000EF00150021003100410D8A4CAEF11F08F
:10239000CCEF11F0D6EF11F0000E016E000E026EC0
:1023A000000E036E000E046E67EF12F0960E0A6EBA
:1023B000E0EF11F00A2AD8900E320D320C320B32B7
:1023C000000E0B14056E000E0C14066E000E0D149C
:1023D000076EFE0E0E14086E05500610071008104A
:1023E000D8A4F5EF11F0F7EF11F0DAEF11F005EFE7
:1023F00012F00A2A010E0B26000E0C220D220E22CC
:10240000D8900E320D320C320B32000E0B14056ECA
:10241000000E0C14066E000E0D14076EFF0E0E1447
:10242000086E0550061007100810D8A41AEF12F015
:102430001CEF12F0F9EF11F024EF12F00A06D89019
:102440000B360C360D360E360DBE29EF12F02BEF83
:1024500012F033EF12F0020E0A6031EF12F033EF98
:1024600012F01EEF12F00AB038EF12F03AEF12F04D
:102470003BEF12F00D9ED8900A320AC005F0066AB2
:10248000076A086A05C008F0076A066A056A055007
:102490000B1206500C1207500D1208500E12095064
:1024A000D8B455EF12F057EF12F05FEF12F004BE00
:1024B0005EEF12F05CEF12F05FEF12F00E8E0BC0C9
:1024C00001F00CC002F00DC003F00EC004F01200C9
:1024D00009EC18F0B2EC17F0CEEC17F0020E066E15
:1024E000000E54EC17F0010E066E080E076EF1ECAC
:1024F00015F0C282C2B27FEF12F081EF12F07AEFD4
:1025000012F0C3CFB9F0060E0001BA6FD890B933FC
:10251000BA2F86EF12F0B951C4CFBBF0BC6BD89084
:10252000BB37BC37D890BB37BC37BB11C56FBC516C
:10253000C66F000E2C6E000E2D6E800E2E6E440E99
:102540002F6E000E136E000E146EA00E156E400E50
:10255000166EC5C001F0C6C002F0036A046A000E20
:102560008EEC11F001C00FF002C010F003C011F0AA
:1025700004C012F06FEC0BF00FC028F010C029F06F
:1025800011C02AF012C02BF084EC0DF028C0C1F06D
:1025900029C0C2F02AC0C3F02BC0C4F0C1C00FF0E4
:1025A000C2C010F0C3C011F0C4C012F0000E136E10
:1025B000000E146EC80E156E420E166E6FEC0BF008
:1025C0000FC0BDF010C0BEF011C0BFF012C0C0F00F
:1025D000D40E0001A36F000EA46F0F0EA56F080E9E
:1025E000A66FBDC0A7F0BEC0A8F0BFC0A9F0C0C014
:1025F000AAF0BFEC16F0020E066E010E54EC17F0B6
:10260000D40E066E000E076EF1EC15F0030E0001FD
:10261000B96F970EE82EFED7B92FFCD700D079EF0F
:1026200012F007EF00F0033404340A6E0A50D8A405
:102630001CEF13F01EEF13F028EF13F0000E016EE5
:10264000000E026E000E036E000E046E95EF13F086
:1026500001C005F002C006F003C007F004C008F096
:10266000200E38EF13F0D8900832073206320532C8
:10267000E82E33EF13F00550096E038EFF0E01169E
:10268000FF0E0216FF0E0316000E0416960E0A5ECB
:102690000ABE4FEF13F04DEF13F065EF13F00A5041
:1026A000800A970FD8B057EF13F059EF13F05BEF94
:1026B00013F01EEF13F0D8900432033202320132CD
:1026C0000A3E5BEF13F07DEF13F01F0E0A646BEF11
:1026D00013F06DEF13F075EF13F01EEF13F0D890B9
:1026E00001360236033604360A060A50D8A47BEFB8
:1026F00013F07DEF13F06FEF13F00950D8B483EFB0
:1027000013F085EF13F08DEF13F0041E031E021E6D
:10271000016C000E02220322042201C001F002C05B
:1027200002F003C003F004C004F01200000E2814ED
:10273000306E000E2914316E800E2A14326E7F0E18
:102740002B14336E3050311032103310D8A4ABEF4D
:1027500013F0ADEF13F0B5EF13F0000E286E000E7E
:10276000296E000E2A6E000E2B6E000E2C14306E99
:10277000000E2D14316E800E2E14326E7F0E2F142B
:10278000336E3050311032103310D8A4CAEF13F02A
:10279000CCEF13F0D4EF13F0000E2C6E000E2D6E64
:1027A000000E2E6E000E2F6E2BAED9EF13F0DBEF66
:1027B00013F0E4EF13F0286C291ED8B0292A2A1E42
:1027C000D8B02A2A800E2B562FAEE9EF13F0EBEF8C
:1027D00013F0F4EF13F02C6C2D1ED8B02D2A2E1E02
:1027E000D8B02E2A800E2F56000E281A000E291A55
:1027F000000E2A1A800E2B1A000E2C1A000E2D1A0B
:10280000000E2E1A800E2F1A2C50285C2D5029589D
:102810002E502A582F502B58D8B011EF14F013EF28
:1028200014F016EF14F0D89017EF14F0D8801200BF
:10283000CBC00BF0CCC00CF0CDC00DF0CEC00EF074
:1028400001C00BF002C00CF003C00DF004C00EF08C
:102850000BC005F00CC006F00DC007F00EC008F06C
:10286000180E38EF14F0D8900832073206320532CD
:10287000E82E33EF14F00550096E0A6A09500A1069
:10288000D8A445EF14F047EF14F067EF14F0D89098
:102890000B34056E0C34066E0D34076E0E34086E64
:1028A0000550061007100810D8A459EF14F05BEF7C
:1028B00014F061EF14F0000E026E020E016E96EF3E
:1028C00014F0000E026E030E016E96EF14F009284C
:1028D0000A10D8A46EEF14F070EF14F092EF14F019
:1028E0000BC005F00CC006F00DC007F00EC008F0DC
:1028F000090ED8900536063607360836E82E79EFE9
:1029000014F00550061007100810D8B48AEF14F020
:102910008DEF14F0010E8EEF14F0000E016E026ABE
:1029200096EF14F0000E026E040E016E12000350BA
:102930000410D8B49EEF14F0A0EF14F0A9EF14F037
:1029400003500410D8A4A7EF14F0A9EF14F0AEEFD1
:1029500014F0015023EC18F0FBEF14F020EE0AF015
:102960000350D9260450DA22DE50DE10D8B4BBEF73
:1029700014F0BDEF14F0D8EF14F020EE0AF003507D
:10298000D9260450DA2210EE03F00350E126045059
:10299000E222DE50E65CE650800A096EDE50800AD4
:1029A0000958D8B0D6EF14F0D8EF14F0FBEF14F0BC
:1029B00020EE03F00350D9260450DA22DECF05F0D2
:1029C000DDCF06F003C0D9FF04C0DAFFDECF07F089
:1029D000DDCF08F005500724D96E06500820DA6EC6
:1029E00001C0DFFF20EE03F00350D9260450DA22A5
:1029F000DE2A000EDD221200000E0F6E000E0E6E9B
:102A000007C0D9FF08C0DAFFDECFF6FFDDCFF7FF42
:102A10000800F5502A0AD8A410EF15F012EF15F0AF
:102A200046EF15F007C0D9FF08C0DAFFDE2A000E16
:102A3000DD2209C0D9FF0AC0DAFFDFCF0BF0020E9A
:102A4000DE26DFCF0CF0000EDD220BC0D9FF0CC05C
:102A5000DAFFDECF0EF0DDCF0FF05AEF15F00EC02B
:102A600001F00FC002F0000E046E0A0E036EF6ECC9
:102A700017F00D5001240E6E000E02200F6E07C0DD
:102A8000D9FF08C0DAFFDE2A000EDD2207C0D9FF19
:102A900008C0DAFFDECFF6FFDDCFF7FF0800F55004
:102AA000D00F0D6E090E0D6458EF15F05AEF15F0AA
:102AB0002FEF15F00EC007F00FC008F01200000E47
:102AC0000114096E000E02140A6E800E03140B6EC0
:102AD0007F0E04140C6E09500A100B100C10D8A4B1
:102AE00074EF15F076EF15F07EEF15F0000E016E25
:102AF000000E026E000E036E000E046E000E051432
:102B0000096E000E06140A6E800E07140B6E7F0EFF
:102B100008140C6E09500A100B100C10D8A493EF77
:102B200015F095EF15F09DEF15F0000E056E000EF7
:102B3000066E000E076E000E086E055001180FE1BC
:102B4000065002180CE10750031809E10850041858
:102B5000D8B4ADEF15F0AFEF15F0B2EF15F0D89097
:102B6000B3EF15F0D880120016BEB9EF15F0BBEF29
:102B700015F0C1EF15F015C01AF016C01BF0C5EF27
:102B800015F0000E1B6E000E1A6E000E196E000E70
:102B9000186ED7EF15F0000E026E200E016E11C0F8
:102BA00003F012C004F097EC14F0184A192A1A50D6
:102BB000185C1950800A176E1B50800A1758D8A04D
:102BC000E4EF15F0E6EF15F0CBEF15F013C00AF0C7
:102BD00014C00BF011C00CF012C00DF032EC17F065
:102BE0001200000E0A6E0EEF16F00A500624086E50
:102BF000000E0720096E08C0F6FF09C0F7FFF86A4B
:102C0000070EF76403D00800F55005D0F6CFE1FFBA
:102C1000F7CFE2FFE75010EC18F00A2A0A5006241A
:102C2000086E000E0720096E08C0F6FF09C0F7FF06
:102C3000F86A070EF76403D00800F55005D0F6CF08
:102C4000E1FFF7CFE2FFE7500009D8A42AEF16F022
:102C50002CEF16F0F5EF15F01200026E0250F00B9B
:102C6000036E02C001F00F0E01160138F00B046E66
:102C700003508C128C84030E016E980EE82EFED742
:102C8000012EFCD78C94030E016E980EE82EFED711
:102C9000012EFCD70350FF0A8C1604508C128C8432
:102CA000030E016E980EE82EFED7012EFCD78C94F1
:102CB000030E016E980EE82EFED7012EFCD70450AD
:102CC000FF0A8C16120004BE72EF16F004500310B7
:102CD000021006E10104D8B070EF16F072EF16F0A2
:102CE0008DEF16F001C005F002C006F003C007F03A
:102CF00004C008F0051E061E071E081E052A000E49
:102D000006220722082205C001F006C002F007C013
:102D100003F008C004F095EF16F001C001F002C006
:102D200002F003C003F004C004F012009DC0A1F043
:102D30009EC0A2F0ABEF16F09BC08CF09CC08DF053
:102D4000A10E00018E6F000E8F6F9FC090F0A0C08B
:102D500091F051EC0FF0A1C0F6FFA2C0F7FF080000
:102D6000F5500009D8A4B7EF16F0B9EF16F09CEFB4
:102D700016F0000E00019C6F000E9B6F1200A70E54
:102D80000001AB6F000EAC6FA3C0ADF0A4C0AEF0FD
:102D9000000EB16F000EB06F000EB86F000EB76F6F
:102DA000AD0E9B6F000E9C6FA5C09DF0A6C09EF05F
:102DB000AB0E9F6F000EA06F96EC16F00001B051A5
:102DC000A325D96EB151A421DA6EDF6A120003C0C7
:102DD00009F004C00AF001C007F002C008F001EFDA
:102DE00017F009C0D9FF0AC0DAFFDF500B6E094A9D
:102DF0000A2A07C0D9FF08C0DAFF0BC0DFFF074A65
:102E0000082A0506D8A00606052806E10628D8A443
:102E10000CEF17F00EEF17F0F1EF16F01200000EA6
:102E20002C1A000E2D1A000E2E1A800E2F1A28C0F2
:102E300001F029C002F02AC003F02BC004F02CC01E
:102E400005F02DC006F02EC007F02FC008F00FECE3
:102E500009F001C028F002C029F003C02AF004C024
:102E60002BF01200000E106E000E0F6E43EF17F0E5
:102E70000EC001F0026A0CC003F00DC004F097EC24
:102E800014F00F4A102A0F500A24D96E10500B204C
:102E9000DA6EDF500E6E0E50D8A451EF17F053EFDC
:102EA00017F038EF17F01200076E000E086E07508B
:102EB000D8A45DEF17F05FEF17F063EF17F0800E07
:102EC000086E70EF17F00704D8A469EF17F06BEFE6
:102ED00017F06FEF17F0C00E086E70EF17F000F0EC
:102EE00006500826085016EC18F0120003C005F032
:102EF00004C006F001C007F002C008F005C0F6FFEC
:102F000006C0F7FF054A062A07C0D9FF08C0DAFF46
:102F1000074A082A0800F5CFDFFFDF50D8A493EF57
:102F200017F095EF17F07EEF17F012000150021026
:102F300003100410D8B49FEF17F0A1EF17F0A9EF1A
:102F400017F0000E011A000E021A000E031A800E6E
:102F5000041A01C001F002C002F003C003F004C073
:102F600004F01200000EC26E000EC16E000EC06EA4
:102F7000C290C250C30B0409C26ECF0EC116C1501D
:102F8000F00B0D09C16EC09EC050F80B0109C06E58
:102F9000C050C70B3009C06EC28012001CEC18F084
:102FA000010E16EC18F0020E16EC18F0060E16ECD8
:102FB00018F00C0E16EC18F0100E16EC18F02C0E83
:102FC00016EC18F0120001EE00F0500EEE6AE80662
:102FD000FDE100EEC7F01D0EEE6AE806FDE15E9031
:102FE0005E92000EF86E000168EF12F001500302CD
:102FF000F3CF05F0F4CF06F001500402F35006269B
:1030000002500302F350062605C001F006C002F08C
:103010001200000ED36E700ED312030ED3121200E4
:10302000056E8C8005502DEC16F01200056E8C900C
:1030300005502DEC16F01200000E956E8C921200C9
:0830400006005E92110012006F
:020000040020DA
:08000000FFFFFFFFFFFFFFFF00
:020000040030CA
:0E000000000B191EFF8180FF0FC00FE00F40A4
:00000001FF
