:0400000007EF00F016
:10000800038247ED00F042EF00F03BEC00F02CECEF
:1000180000F095908CA013EF00F017EF00F0016A44
:10002800012A18EF00F0016A8C500118FE0B011824
:100038008C6E030E026E8A0E016E560EE82EFED7E7
:10004800012EFCD7022EFAD70EEF00F007EF00F0D2
:100058009494F90ECB6E7D0EBE6ECF0EBD160F0EAC
:10006800BD12030ECA12000ECC6ECA841200000E16
:10007800D36E700ED312030ED312120003900392A4
:0C008800000109EF00F0060003921100D7
:020000040020DA
:08000000FFFFFFFFFFFFFFFF00
:020000040030CA
:0E000000000B191EFF8080FF0FC00FE00F40A5
:00000001FF
