:04000000B0EF3FF02E
:107F60000001CBEF3FF0000ED36E700ED312030E64
:107F7000D3121200000ED56ED59ED59CD59AD598F9
:107F8000D596D550F80B0209D56EFF0ED76E060EAA
:107F9000D66ED58E1200B3EC3FF0BAEC3FF0939062
:107FA000000E036E000E026EF2A4D9EF3FF0DBEF7D
:107FB0003FF0E2EF3FF0024A032AFF0ED76E060EB3
:107FC000D66EF294F30E021806E10304D8A4EBEF88
:107FD0003FF0EDEF3FF0D4EF3FF08AA0F2EF3FF03B
:107FE000F6EF3FF0016A012AF7EF3FF0016A8A508D
:107FF0000118FE0B01188A6ED0EF3FF000EF00F081
:020000040020DA
:08000000FFFFFFFFFFFFFFFF00
:020000040030CA
:0E000000000B191EFF8080FF0FC00FE00F40A5
:00000001FF
