:0400000007EF00F016
:0A0008004282CFED04F02BEF05F06B
:1008000000486F6C6121000029502A10D8B40BEF0A
:1008100004F00DEF04F016EF04F029502A10D8A4CC
:1008200014EF04F016EF04F01BEF04F0275049EC2E
:1008300005F068EF04F020EE0AF02950D9262A507E
:10084000DA22DE50DE10D8B428EF04F02AEF04F0EC
:1008500045EF04F020EE0AF02950D9262A50DA227A
:1008600010EE03F02950E1262A50E222DE50E65C29
:10087000E650800A2F6EDE50800A2F58D8B043EF22
:1008800004F045EF04F068EF04F020EE03F0295087
:10089000D9262A50DA22DECF2BF0DDCF2CF029C06A
:1008A000D9FF2AC0DAFFDECF2DF0DDCF2EF02B509E
:1008B0002D24D96E2C502E20DA6E27C0DFFF20EEBB
:1008C00003F02950D9262A50DA22DE2A000EDD2232
:1008D000120032C0D9FF33C0DAFFDECFF6FFDDCF22
:1008E000F7FF0800F550250AD8A479EF04F07BEF54
:1008F00004F093EF04F032C0D9FF33C0DAFFDE2AF0
:10090000000EDD22000E226E000E216E21C025F0A9
:100910002368246832C0D9FF33C0DAFFDE2A000E14
:10092000DD22A7EF04F032C0D9FF33C0DAFFDECFFB
:10093000F6FFDDCFF7FF0800F550276E286A30C0BC
:1009400029F031C02AF004EC04F08AEF04F0120020
:1009500038C03CF039C03DF0BCEF04F036C030F098
:1009600037C031F03C0E326E000E336E3AC034F0B8
:100970003BC035F069EC04F03CC0F6FF3DC0F7FF2A
:100980000800F5500009D8A4C8EF04F0CAEF04F03D
:10099000AEEF04F0000E376E000E366E1200060049
:1009A000F2AAD5EF04F0D7EF04F0F2EF04F0F2A4CE
:1009B000DCEF04F0DEEF04F0F2EF04F08AA0E3EFE6
:1009C00004F0E7EF04F0266A262AE8EF04F0266A2E
:1009D0008A502618FE0B26188A6E0B0ED76EDC0E78
:1009E000D66EF294429211003AEC05F041EC05F01B
:1009F00046EC05F01AEC05F0010E3E6E080E3F6E57
:100A000007EC05F000F0FCEF04F007EF00F0400EFB
:100A1000406E000E416E000E366E000E376E3EC008
:100A200038F03FC039F0400E3A6E000E3B6EA8EC35
:100A300004F01200000ED56ED59ED59CD59AD5989F
:100A4000D596D550F80B0209D56E0B0ED76EDC0E7D
:100A5000D66ED58E120000EE01F0250EEE6AE80685
:100A6000FDE142904292000EF86E080EF76E000112
:100A7000F4EF04F0000ED36E700ED312030ED312F7
:100A80001200F28EF28CF28AF294120093908A9005
:040A9000120012003E
:020000040020DA
:08000000FFFFFFFFFFFFFFFF00
:020000040030CA
:0E000000000B191EFF8080FF0FC00FE00F40A5
:00000001FF
