:0400000007EF00F016
:10000800028209ED00F053EF00F00600F2AA0FEFAC
:1000180000F011EF00F02CEF00F0F2A416EF00F062
:1000280018EF00F02CEF00F08AA01DEF00F021EF90
:1000380000F0016A012A22EF00F0016A8A500118D3
:10004800FE0B01188A6E0B0ED76EDC0ED66EF2947C
:1000580002921100000ED56ED59ED59CD59AD598E2
:10006800D596D550F80B0209D56E0B0ED76EDC0E5F
:10007800D66ED58E12004CEC00F058EC00F05DEC1A
:1000880000F02EEC00F000F047EF00F007EF00F072
:10009800000ED36E700ED312030ED312120002900C
:1000A800029200013FEF00F0F28EF28CF28AF29495
:0800B800120093908A901200DF
:020000040020DA
:08000000FFFFFFFFFFFFFFFF00
:020000040030CA
:0E000000000B191EFF8080FF0FC00FE00F40A5
:00000001FF
