:0400000007EF00F016
:0A0008005E8203ED18F0C6EF17F05A
:1008000000414443204D6561737572653A2000765E
:10081000616C203D20252E32667600696E66006E82
:10082000616E0000000E0001816F57C084F058C057
:1008300085F059C086F05AC087F087BF24EF04F0D6
:1008400022EF04F038EF04F0010E816F84C001F054
:1008500085C002F086C003F087C004F07BEC17F07F
:1008600001C084F002C085F003C086F004C087F0A8
:10087000000E0001836F000E826FCBC071F0CCC000
:1008800072F08151D8B447EF04F049EF04F05DEF06
:1008900004F08151D8A44FEF04F051EF04F057EF6A
:1008A00004F0000E676F2B0E666F5BEF04F0000E16
:1008B000676F2D0E666F66C081F084C001F085C041
:1008C00002F086C003F087C004F0FDEC13F00104D1
:1008D0000210D8A46EEF04F070EF04F0A3EF04F060
:1008E00000018151D8B477EF04F079EF04F082EF82
:1008F00004F081C000F17107D8A07207000E836F69
:10090000010E826F000E8225016E010E8321026EA0
:100910001B0E036E080E046E5BEC17F00001FD0E5B
:100920007127FF0E722355C011F056C012F0000E51
:10093000136E010E146E71C015F072C016F099ECB2
:1009400015F00DEF09F084C001F085C002F086C0FB
:1009500003F087C004F0FDEC13F001500210D8A49E
:10096000B4EF04F0B6EF04F0D6EF04F000018151CB
:10097000D8B4BDEF04F0BFEF04F0C8EF04F081C0BD
:1009800000F17107D8A07207000E836F010E826F0D
:10099000000E8225016E010E8321026E1F0E036E72
:1009A000080E046E5BEC17F08EEF04F0000E0001F1
:1009B000886F000E896F800E8A6F3F0E8B6F000E5E
:1009C000706F000E6F6F84C001F085C002F086C0AA
:1009D00003F087C004F0000E056E000E066E000ED8
:1009E000076E000E086E44EC15F0D8B0FAEF04F074
:1009F000FCEF04F0DBEF05F009EF05F073C088F0C1
:100A000074C089F075C08AF076C08BF000016F4B1E
:100A1000702B88C00FF089C010F08AC011F08BC015
:100A200012F0000E136E000E146E200E156E410EA5
:100A3000166E6EEC0BF00FC073F010C074F011C0A6
:100A400075F012C076F000017351845D016E74512F
:100A50008559026E75518659036E76518759046E19
:100A600048EC16F004BE40EF05F0045003100210ED
:100A700009E1020E015CD8A040EF05F042EF05F05D
:100A8000FEEF04F073C028F074C029F075C02AF09E
:100A900076C02BF084C02CF085C02DF086C02EF0DF
:100AA00087C02FF07BEC13F0D8A059EF05F05BEF77
:100AB00005F0FEEF04F000018851845D016E89515C
:100AC0008559026E8A518659036E8B518759046E7F
:100AD00048EC16F004BE7AEF05F004500310021043
:100AE00007E1020E015CD8B078EF05F07AEF05F06F
:100AF000C2EF05F088C084F089C085F08AC086F016
:100B00008BC087F0DBEF05F088C028F089C029F0A2
:100B10008AC02AF08BC02BF0000E2C6E000E2D6EBA
:100B2000200E2E6E410E2F6E83EC0DF028C088F043
:100B300029C089F02AC08AF02BC08BF000016F0712
:100B4000D8A070078851845D016E89518559026E65
:100B50008A518659036E8B518759046E48EC16F002
:100B600004BEC0EF05F004500310021007E1020EAE
:100B7000015CD8B0BEEF05F0C0EF05F0C2EF05F0A4
:100B80007AEF05F084C028F085C029F086C02AF0ED
:100B900087C02BF088C02CF089C02DF08AC02EF0C1
:100BA0008BC02FF07BEC13F0D8A0D9EF05F0DBEF72
:100BB00005F084EF05F05BC069F069C06AF00001E0
:100BC000CEBFE5EF05F0E7EF05F0EDEF05F0CDC0A6
:100BD00062F0CEC063F0F1EF05F0000E636F060E19
:100BE000626F62C06DF063C06EF06D4B6E2B660E6F
:100BF0006A19D8A4FEEF05F000EF06F020EF06F02A
:100C000070BF07EF06F005EF06F013EF06F0000ED9
:100C1000886F000E896F800E8A6F3F0E8B6F000EFB
:100C2000706F000E6F6F670E6919D8B41AEF06F077
:100C30001CEF06F020EF06F06F516D2770516E2308
:100C4000000E786F000E776F84C079F085C07AF05F
:100C500086C07BF087C07CF088C073F089C074F0D8
:100C60008AC075F08BC076F0B1EF06F079C028F03D
:100C70007AC029F07BC02AF07CC02BF088C02CF011
:100C800089C02DF08AC02EF08BC02FF083EC0DF0C0
:100C900028C041F029C042F02AC043F02BC044F0E4
:100CA00084EC10F041C07DF042C07EF043C07FF084
:100CB00044C080F07DC001F07EC002F07FC003F030
:100CC00080C004F0F8EC12F001C06BF002C06CF0D0
:100CD00079C028F07AC029F07BC02AF07CC02BF0C4
:100CE0007DC013F07EC014F07FC015F080C016F0F8
:100CF00088C00FF089C010F08AC011F08BC012F0CC
:100D00006EEC0BF00FC02CF010C02DF011C02EF0C7
:100D100012C02FF0F4EC16F028C079F029C07AF058
:100D20002AC07BF02BC07CF088C028F089C029F055
:100D30008AC02AF08BC02BF0000E2C6E000E2D6E98
:100D4000200E2E6E410E2F6E83EC0DF028C088F021
:100D500029C089F02AC08AF02BC08BF00001774BA4
:100D6000782B6D51775D7851800A5C6E6E51800AE8
:100D70005C58D8A0BEEF06F0C0EF06F036EF06F0E4
:100D800088C00FF089C010F08AC011F08BC012F03B
:100D9000000E136E000E146EA00E156E400E166E31
:100DA0006EEC0BF00FC07DF010C07EF011C07FF034
:100DB00012C080F079C028F07AC029F07BC02AF0F8
:100DC0007CC02BF07DC02CF07EC02DF07FC02EF0BB
:100DD00080C02FF07BEC13F0D8B0F1EF06F0F3EF0A
:100DE00006F0FEEF06F0000E00017D6F000E7E6F34
:100DF000000E7F6F000E806F27EF07F079C001F0C3
:100E00007AC002F07BC003F07CC004F07DC005F026
:100E10007EC006F07FC007F080C008F044EC15F0FB
:100E2000D8A015EF07F017EF07F027EF07F0000144
:100E30006BB11DEF07F01FEF07F027EF07F0000E73
:100E40007D6F000E7E6F000E7F6F000E806F84C07E
:100E500001F085C002F086C003F087C004F07DC0B9
:100E600005F07EC006F07FC007F080C008F00EECF1
:100E700009F001C079F002C07AF003C07BF004C031
:100E80007CF079C028F07AC029F07BC02AF07CC0C1
:100E90002BF0000E136E000E146E200E156E410E18
:100EA000166E73C00FF074C010F075C011F076C0EC
:100EB00012F06EEC0BF00FC02CF010C02DF011C032
:100EC0002EF012C02FF07BEC13F0D8A06AEF07F0E1
:100ED0006CEF07F095EF07F000016F4B702B73C0BC
:100EE0000FF074C010F075C011F076C012F0000E53
:100EF000136E000E146E200E156E410E166E6EEC03
:100F00000BF00FC073F010C074F011C075F012C078
:100F100076F0660E00016A19D8A491EF07F093EFFE
:100F200007F095EF07F06D4B6E2B73C088F074C01F
:100F300089F075C08AF076C08BF06FC060F070C029
:100F400061F0000E0001686F000E656F000E646FA7
:100F5000000E786F000E776F93EF08F079C028F0DD
:100F60007AC029F07BC02AF07CC02BF088C02CF01E
:100F700089C02DF08AC02EF08BC02FF083EC0DF0CD
:100F800028C041F029C042F02AC043F02BC044F0F1
:100F900084EC10F041C07DF042C07EF043C07FF091
:100FA00044C080F07DC001F07EC002F07FC003F03D
:100FB00080C004F0F8EC12F002BEEAEF07F0025035
:100FC00007E10A0E015CD8B0E8EF07F0EAEF07F09E
:100FD000FAEF07F07DC001F07EC002F07FC003F0A1
:100FE00080C004F0F8EC12F001C06BF002C06CF0AD
:100FF000FFEF07F0000E00016C6F090E6B6F000130
:101000006851D8A406EF08F008EF08F030EF08F0B8
:1010100061BF0FEF08F00DEF08F030EF08F0000EA1
:101020008225D96E010E8321DA6E2E0EDF6E824B81
:10103000832B7107D8A07207010E686F30EF08F09C
:10104000000E8225D96E010E8321DA6E300EDF6E1E
:10105000824B832B7107D8A072076407D8A065075D
:1010600064516511D8A437EF08F039EF08F020EF8C
:1010700008F0000E8225D96E010E8321DA6E6B51C5
:10108000300FDF6E824B832B7107D8A0720779C0B7
:1010900028F07AC029F07BC02AF07CC02BF07DC0FC
:1010A00013F07EC014F07FC015F080C016F088C029
:1010B0000FF089C010F08AC011F08BC012F06EECF6
:1010C0000BF00FC02CF010C02DF011C02EF012C08C
:1010D0002FF0F4EC16F028C079F029C07AF02AC07D
:1010E0007BF02BC07CF088C028F089C029F08AC032
:1010F0002AF08BC02BF0000E2C6E000E2D6E200EF1
:101100002E6E410E2F6E83EC0DF028C088F029C0A2
:1011100089F02AC08AF02BC08BF000016007D8A0AC
:101120006107774B782B6D51775D7851800A5C6E43
:101130006E51800A5C58D8B0A0EF08F0A2EF08F01A
:10114000B0EF08F083BFAEEF08F0835109E14B0E1A
:10115000825DD8A0AEEF08F0B0EF08F0AEEF07F078
:10116000000E786F4F0E776F000E7725D96E010E47
:101170007821DA6EDF6A000E5C6E010E5D6E8251C0
:101180005C5E83515D5A77515C24016E78515D201D
:10119000026E000E036E010E046E82C005F083C065
:1011A00006F0CCEC16F000018251775D826F83511E
:1011B0007859836F8151D8A4E0EF08F0E3EF08F08D
:1011C000010EE4EF08F0000E776F786B8151D8B410
:1011D000ECEF08F0EEEF08F0F9EF08F08207D8A086
:1011E0008307000E8225D96E010E8321DA6E81C03D
:1011F000DFFF7751715F7851725B55C011F056C0B7
:1012000012F0000E8225136E010E8321146E71C040
:1012100015F072C016F099EC15F012000450800B16
:101220000D6E045004240F6E03AE19EF09F01BEF8E
:1012300009F01CEF09F00F800F50D8B422EF09F02D
:1012400024EF09F039EF09F00F28D8A42AEF09F0AC
:101250002CEF09F034EF09F0000E016E000E026E63
:10126000000E036E000E046E038E000E046E41EF3E
:1012700009F0000E016E000E026E000E036E000EED
:10128000046E0850800B0E6E0D500E18D8B44BEF44
:1012900009F04DEF09F04EEF09F00D8C08500824CD
:1012A0000E6E07AE56EF09F058EF09F059EF09F04E
:1012B0000E800E50D8B45FEF09F061EF09F076EFC1
:1012C00009F00E28D8A467EF09F069EF09F071EF73
:1012D00009F0000E056E000E066E000E076E000E81
:1012E000086E078E000E086E7EEF09F0000E056E88
:1012F000000E066E000E076E000E086E0F500E5C9C
:10130000D8B085EF09F087EF09F0AEEF09F00DAC2A
:101310008CEF09F08EEF09F090EF09F0800E0D1AB6
:101320000FC010F00EC00FF010C00EF001C010F092
:1013300005C001F010C005F002C010F006C002F0B8
:1013400010C006F003C010F007C003F010C007F093
:1013500004C010F008C004F010C008F0000E106EB9
:101360000F500EC009F00A6A095E000E0A5A0ABE42
:10137000C3EF09F00A5009E11A0E095CD8A0C3EFC7
:1013800009F0C5EF09F0FCEF09F00150021003105D
:101390000410D8A4CEEF09F0D1EF09F0010ED2EF7E
:1013A00009F0000E106E000E016E000E026E000EAF
:1013B000036E000E046E0EC00FF005EF0AF010A0D1
:1013C000E4EF09F0E6EF09F0ECEF09F0D890103007
:1013D0000109106EEEEF09F0D890103201A0F3EF82
:1013E00009F0F5EF09F0F6EF09F0108E043404323D
:1013F0000332023201320F2A0E500F5CD8A003EFE5
:101400000AF005EF0AF0DFEF09F00DBC0AEF0AF071
:101410000CEF0AF04CEF0AF00F50D8A412EF0AF0CC
:1014200014EF0AF01EEF0AF0000E016E000E026EBD
:10143000000E036E000E046E6DEF0BF005500126DA
:1014400006500222075003220850042204A02BEF6A
:101450000AF02DEF0AF0D9EF0AF010A032EF0AF0EF
:1014600034EF0AF03AEF0AF0D89010300109106E0C
:101470003CEF0AF0D890103201A041EF0AF043EFA0
:101480000AF044EF0AF0108E0434043203320232C0
:1014900001320F2AD9EF0AF00550015C06500258BC
:1014A000075003580450800A096E0850800A0958F2
:1014B000D8B05DEF0AF05FEF0AF08AEF0AF0015052
:1014C000055C096E025006580A6E035007580B6EF1
:1014D000045008580C6EFF0E0924016EFF0E0A20FE
:1014E000026EFF0E0B20036EFF0E0C20046E800EAA
:1014F0000D1A106C1050D8A480EF0AF082EF0AF099
:1015000092EF0AF0010E0126000E022203220422AD
:1015100092EF0AF00550015E0650025A0750035A36
:101520000850045A0150021003100410D8A49BEF75
:101530000AF09DEF0AF0D2EF0AF01050D8A4A3EF02
:101540000AF0A5EF0AF0D2EF0AF0000E016E000ECD
:10155000026E000E036E000E046E6DEF0BF0D8905D
:10156000013602360336043610AEB9EF0AF0BBEF8F
:101570000AF0BCEF0AF0018010A0C1EF0AF0C3EF3F
:101580000AF0C7EF0AF0D8801036C9EF0AF0D890F9
:1015900010360F50D8B4CFEF0AF0D1EF0AF0D2EFE7
:1015A0000AF00F0603AED7EF0AF0D9EF0AF0AFEF5B
:1015B0000AF0000E0E6E10AEE0EF0AF0E2EF0AF055
:1015C000FAEF0AF010C009F07F0E0916D8B4EBEF5D
:1015D0000AF0EDEF0AF0F1EF0AF0010E0E6EFAEFED
:1015E0000AF001A0F6EF0AF0F8EF0AF0FAEF0AF0BD
:1015F000EDEF0AF00E50D8B400EF0BF002EF0BF055
:101600002DEF0BF0010E0126000E02220322042210
:1016100004A00DEF0BF00FEF0BF02DEF0BF001C05E
:1016200009F002C00AF003C00BF004C00CF00C3447
:101630000C320B320A32093209C001F00AC002F042
:101640000BC003F00CC004F00F28D8B42AEF0BF045
:101650002CEF0BF02DEF0BF00F2A0F28D8B433EF3F
:101660000BF035EF0BF03DEF0BF00F50D8A43BEF34
:101670000BF03DEF0BF04FEF0BF0000E016E000E84
:10168000026E000E036E000E046E0F50D8A44BEFD6
:101690000BF04DEF0BF04FEF0BF0000E0D6E0FA0A7
:1016A00054EF0BF056EF0BF059EF0BF0038E5AEF9F
:1016B0000BF0039ED8900F30046E0DAE62EF0BF06E
:1016C00064EF0BF065EF0BF0048E01C001F002C077
:1016D00002F003C003F004C004F012001250800BAB
:1016E0001B6E12501224216E11AE79EF0BF07BEFBE
:1016F0000BF07CEF0BF021802150D8B482EF0BF07F
:1017000084EF0BF097EF0BF02128D8A48AEF0BF0B1
:101710008CEF0BF094EF0BF0000E0F6E000E106EBE
:10172000000E116E000E126E118E9FEF0BF0000E68
:101730000F6E000E106E000E116E000E126E16501F
:10174000800B1B1A16501624206E15AEAAEF0BF054
:10175000ACEF0BF0ADEF0BF020802050D8B4B3EF1E
:101760000BF0B5EF0BF0C8EF0BF02028D8A4BBEFBF
:101770000BF0BDEF0BF0C5EF0BF0000E136E000E7B
:10178000146E000E156E000E166E158ED0EF0BF057
:10179000000E136E000E146E000E156E000E166E07
:1017A0002050D8B4D6EF0BF0D8EF0BF0E0EF0BF0F1
:1017B0002150D8A4DEEF0BF0E0EF0BF0EAEF0BF0D6
:1017C000000E0F6E000E106E000E116E000E126EE7
:1017D00082EF0DF015500F02F3CF26F0F4CF27F073
:1017E00026501C6E1D6A1E6A1F6A2750226E236ACD
:1017F000246A256A14501002F3CF26F0F4CF27F0A4
:1018000026501C26000E1D221E221F222750222693
:10181000000E23222422252213501102F3CF26F09A
:10182000F4CF27F026501C26000E1D221E221F2258
:1018300027502226000E2322242225221EC01FF01C
:101840001DC01EF01CC01DF01C6A13501002F3CF07
:1018500026F0F4CF27F026501C2627501D22000E1C
:101860001E22000E1F2214500F02F3CF26F0F4CFD9
:1018700027F026501C2627501D22000E1E22000E87
:101880001F221EC01FF01DC01EF01CC01DF01C6AD0
:1018900013500F02F3CF26F0F4CF27F026501C266A
:1018A00027501D22000E1E22000E1F22155010026E
:1018B000F3CF26F0F4CF27F02650222627502322FC
:1018C000000E2422000E252214501102F3CF26F020
:1018D000F4CF27F02650222627502322000E242260
:1018E000000E252215501102F3CF26F0F4CF27F079
:1018F0002650176E2750186E196A1A6A19C01AF006
:1019000018C019F017C018F0176A1750222618507F
:101910002322195024221A5025221CC017F01DC062
:1019200018F01EC019F01FC01AF0190E9DEF0CF030
:10193000D8901A32193218321732E82E98EF0CF07C
:101940001750222618502322195024221A502522DB
:101950001EC01FF01DC01EF01CC01DF01C6A2050D0
:1019600021C017F0186A1726000E1822820E1724BD
:10197000266EFF0E1820276ED3EF0CF0D89022367B
:101980002336243625361FAEC8EF0CF0CAEF0CF014
:10199000CBEF0CF02280D8901C361D361E361F3639
:1019A0002606D8A0270624AED8EF0CF0DAEF0CF00C
:1019B000BEEF0CF0000E206E1FAEE1EF0CF0E3EF77
:1019C0000CF007EF0DF0FF0E1C14176EFF0E1D1428
:1019D000186EFF0E1E14196E7F0E1F141A6E17500C
:1019E000181019101A10D8B4F8EF0CF0FAEF0CF028
:1019F000FEEF0CF0010E206E07EF0DF022A003EFBA
:101A00000DF005EF0DF007EF0DF0FAEF0CF02050A0
:101A1000D8B40DEF0DF00FEF0DF033EF0DF0010E18
:101A20002226000E23222422252225A01AEF0DF0C3
:101A30001CEF0DF033EF0DF022C017F023C018F0AB
:101A400024C019F025C01AF01A341A32193218328B
:101A5000173217C022F018C023F019C024F01AC0A2
:101A600025F0264A272A27BE3EEF0DF0275008E131
:101A70002628D8A03EEF0DF040EF0DF04AEF0DF014
:101A8000000E226E000E236E800E246E7F0E256ED9
:101A900078EF0DF027BE57EF0DF0275006E1260432
:101AA000D8B055EF0DF057EF0DF063EF0DF0000ECD
:101AB000226E000E236E000E246E000E256E000EA8
:101AC0001B6E78EF0DF026C021F0FF0E2216FF0EE0
:101AD00023167F0E2416000E251621A072EF0DF09E
:101AE00074EF0DF075EF0DF0248ED8902130256E37
:101AF0001B50251222C00FF023C010F024C011F09B
:101B000025C012F012002B50800B386E2B502B2466
:101B10003F6E2AAE8EEF0DF090EF0DF091EF0DF0CD
:101B20003F803F50D8B497EF0DF099EF0DF0AEEF36
:101B30000DF03F28D8A49FEF0DF0A1EF0DF0A9EF15
:101B40000DF0000E286E000E296E000E2A6E000E9B
:101B50002B6E2A8E000E2B6EB6EF0DF0000E286E47
:101B6000000E296E000E2A6E000E2B6E2F50800B79
:101B7000381A2F502F24406E2EAEC1EF0DF0C3EF58
:101B80000DF0C4EF0DF040804050D8B4CAEF0DF016
:101B9000CCEF0DF0E1EF0DF04028D8A4D2EF0DF01E
:101BA000D4EF0DF0DCEF0DF0000E2C6E000E2D6E5C
:101BB000000E2E6E000E2F6E2E8E000E2F6EE9EF91
:101BC0000DF0000E2C6E000E2D6E000E2E6E000E0F
:101BD0002F6E2C502D102E102F10D8A4F2EF0DF0D8
:101BE000F4EF0DF00CEF0EF0000E286E000E296ED3
:101BF000000E2A6E000E2B6E800E2A127F0E2B1204
:101C000038502B1228C028F029C029F02AC02AF009
:101C10002BC02BF04FEF0FF03F50D8A412EF0EF077
:101C200014EF0EF01EEF0EF0000E286E000E296E5F
:101C3000000E2A6E000E2B6E4FEF0FF040503FC08B
:101C400030F0316A305E000E315A7F0E3024396E2A
:101C5000000E31203A6E28C034F029C035F02AC079
:101C600036F02BC037F0000E286E000E296E000EE5
:101C70002A6E000E2B6E000E3B6E000E3C6E000EA8
:101C80003D6E000E3E6E000E406E7FEF0EF0405037
:101C9000D8B44DEF0EF04FEF0EF066EF0EF0D89087
:101CA0003436353636363736D890283629362A3601
:101CB0002B363EAE5EEF0EF060EF0EF061EF0EF0F1
:101CC0002880D8903B363C363D363E362C50345C2E
:101CD0002D5035582E5036582F503758D8A073EF06
:101CE0000EF075EF0EF07EEF0EF03E8C2C50345E51
:101CF0002D50355A2E50365A2F50375A402A190E29
:101D0000406485EF0EF087EF0EF047EF0EF0345091
:101D1000351036103710D8B490EF0EF092EF0EF069
:101D2000AAEF0EF03B80AAEF0EF0D89028362936A5
:101D30002A362B363EAE9FEF0EF0A1EF0EF0A2EF4B
:101D40000EF02880D8903B363C363D363E3639067C
:101D5000D8A03A062AAEAFEF0EF0B1EF0EF095EF35
:101D60000EF0000E406E3EAEB8EF0EF0BAEF0EF081
:101D7000DEEF0EF0FF0E3B14306EFF0E3C14316EA2
:101D8000FF0E3D14326E7F0E3E14336E3050311014
:101D900032103310D8B4CFEF0EF0D1EF0EF0D5EFF4
:101DA0000EF0010E406EDEEF0EF028A0DAEF0EF01E
:101DB000DCEF0EF0DEEF0EF0D1EF0EF04050D8B4B5
:101DC000E4EF0EF0E6EF0EF00AEF0FF0010E28261A
:101DD000000E29222A222B222BA0F1EF0EF0F3EF86
:101DE0000EF00AEF0FF028C030F029C031F02AC001
:101DF00032F02BC033F033343332323231323032BE
:101E000030C028F031C029F032C02AF033C02BF0A6
:101E1000394A3A2A3ABE15EF0FF03A5008E139280C
:101E2000D8A015EF0FF017EF0FF022EF0FF0000E14
:101E30003A6E3968000E286E000E296E000E2A6E6A
:101E4000000E2B6E3ABE2FEF0FF03A5006E1390428
:101E5000D8B02DEF0FF02FEF0FF03DEF0FF0000E89
:101E60003A6E000E396E000E286E000E296E000EBE
:101E70002A6E000E2B6E000E386E39C03FF03FA068
:101E800044EF0FF046EF0FF049EF0FF02A8E4AEFC4
:101E90000FF02A9ED8903F302B6E00EF0EF012000C
:101EA0008EC0D9FF8FC0DAFFDECFF6FFDDCFF7FFA0
:101EB0000800F550250AD8A460EF0FF062EF0FF08C
:101EC0006FEF10F08EC0D9FF8FC0DAFFDE2A000E50
:101ED000DD22000E0001CC6F000ECB6FCBC0CFF027
:101EE000CD69CE698EC0D9FF8FC0DAFFDECFF6FF95
:101EF000DDCFF7FF0800F5502E0AD8A482EF0FF0CF
:101F000084EF0FF099EF0FF08EC0D9FF8FC0DAFF8A
:101F1000DE2A000EDD228EC007F08FC008F090C0D0
:101F200009F091C00AF0E1EC14F007C0CDF008C050
:101F3000CEF08EC0D9FF8FC0DAFFDECF99F0DDCFB3
:101F40009AF099C0F6FF9AC0F7FF0800F5CF98F015
:101F5000B6EF0FF0994B9A2BD0EF0FF06C0E986FF5
:101F6000D0EF0FF0000E986FD0EF0FF000019851F6
:101F7000926F936B9351000AD8B4C1EF0FF0B2EF98
:101F80000FF092514C0AD8B4AAEF0FF02A0AD8B435
:101F9000AEEF0FF00A0AD8B4AAEF0FF0B2EF0FF0CD
:101FA00099C0F6FF9AC0F7FF0800F550660AD8A45A
:101FB000DCEF0FF0DEEF0FF066EF10F014EF10F033
:101FC00090C0D9FF91C0DAFFDFCF92F0040EDE2679
:101FD000DFCF93F0000EDD2292C0D9FF93C0DAFF6D
:101FE000DECF94F0DECF95F0DECF96F0DECF97F027
:101FF00029EF10F090C0D9FF91C0DAFFDFCF92F047
:10200000040EDE26DFCF93F0000EDD2292C0D9FF52
:1020100093C0DAFFDECF94F0DECF95F0DECF96F0FE
:10202000DECF97F029EF10F09851926F936B935198
:10203000000AD8B41EEF10F029EF10F092514C0AAC
:10204000D8B4FAEF0FF0200AD8B4E0EF0FF029EF80
:1020500010F0010E9925926F000E9A21936F8EC099
:10206000D9FF8FC0DAFF92C0DEFF93C0DDFF50EFD3
:1020700010F08CC055F08DC056F094C057F095C04C
:1020800058F096C059F097C05AF099C0F6FF9AC020
:10209000F7FF0800F5CF5BF012EC04F083EF10F0CF
:1020A00099C0F6FF9AC0F7FF0800F550926F936B46
:1020B0009351000AD8B45FEF10F066EF10F0925120
:1020C000660AD8B439EF10F066EF10F08EC0D9FF71
:1020D0008FC0DAFFDE2A000EDD2283EF10F08EC003
:1020E000D9FF8FC0DAFFDECFF6FFDDCFF7FF0800A4
:1020F000F550016E026A8CC003F08DC004F07CECD8
:1021000014F066EF10F01200C3C051F0C4C052F0DA
:10211000C5C053F0C6C054F041C051F042C052F0A7
:1021200043C053F044C054F0810E456EFF0E466E1E
:1021300051C047F052C048F053C049F054C04AF073
:10214000180EA8EF10F0D8904A3249324832473280
:10215000E82EA3EF10F0475045244F6E000E4620A6
:10216000506E50BEBDEF10F0505009E1170E4F5C9D
:10217000D8A0BDEF10F0BFEF10F0C9EF10F041C0D4
:1021800041F042C042F043C043F044C044F08CEF01
:1021900011F050BECEEF10F0D0EF10F040EF11F084
:1021A0004FC045F0FF0E466EFF0E476E7F0E486E25
:1021B000000E496E4566DFEF10F0E7EF10F049348E
:1021C0004932483247324632452EDAEF10F046C0E7
:1021D0004BF047C04CF048C04DF049C04EF04B505A
:1021E0005114456E4C505214466E4D505314476E68
:1021F0004E505414486E4550461047104810D8A40D
:1022000004EF11F006EF11F008EF11F0BFEF10F03E
:1022100051C045F052C046F053C047F054C048F09A
:10222000200E18EF11F0D89048324732463245322E
:10223000E82E13EF11F04550461047104810D8B45F
:1022400024EF11F026EF11F02EEF11F04B50512634
:102250004C5052224D5053224E5054224B1C456E2E
:102260004C1C466E4D1C476E4E1C486E4550511618
:1022700046505216475053164850541684EF11F0EA
:1022800051C045F052C046F053C047F054C048F02A
:10229000200E50EF11F0D890483247324632453286
:1022A000E82E4BEF11F04550461047104810D8A4C7
:1022B0005CEF11F05EEF11F068EF11F0000E516E5F
:1022C000000E526E000E536E000E546E84EF11F02D
:1022D000D8905134456E5234466E5334476E543460
:1022E000486E4550461047104810D8B47AEF11F0A8
:1022F0007CEF11F084EF11F0000E516E000E526E63
:10230000800E536EBF0E546E51C041F052C042F069
:1023100053C043F054C044F01200096E0950D8B4C1
:1023200094EF11F096EF11F0B8EF11F004BE9DEFAD
:1023300011F09BEF11F0B8EF11F001C005F002C0F1
:1023400006F003C007F004C008F0051E061E071EB5
:10235000081E052A000E06220722082205C00BF0DF
:1023600006C00CF007C00DF008C00EF0C0EF11F071
:1023700001C00BF002C00CF003C00DF004C00EF061
:102380000150021003100410D8A4C9EF11F0CBEFD4
:1023900011F0D5EF11F0000E016E000E026E000E6E
:1023A000036E000E046E66EF12F0960E0A6EDFEFFB
:1023B00011F00A2AD8900E320D320C320B32000E78
:1023C0000B14056E000E0C14066E000E0D14076E35
:1023D000FE0E0E14086E0550061007100810D8A443
:1023E000F4EF11F0F6EF11F0D9EF11F004EF12F065
:1023F0000A2A010E0B26000E0C220D220E22D89066
:102400000E320D320C320B32000E0B14056E000E24
:102410000C14066E000E0D14076EFF0E0E14086EDF
:102420000550061007100810D8A419EF12F01BEF82
:1024300012F0F8EF11F023EF12F00A06D8900B36E5
:102440000C360D360E360DBE28EF12F02AEF12F0C4
:1024500032EF12F0020E0A6030EF12F032EF12F09B
:102460001DEF12F00AB037EF12F039EF12F03AEF29
:1024700012F00D9ED8900A320AC005F0066A076A6B
:10248000086A05C008F0076A066A056A05500B125B
:1024900006500C1207500D1208500E120950D8B4F5
:1024A00054EF12F056EF12F05EEF12F004BE5DEF43
:1024B00012F05BEF12F05EEF12F00E8E0BC001F027
:1024C0000CC002F00DC003F00EC004F01200ECECE2
:1024D00017F097EC17F0B1EC17F0020E066E000E35
:1024E00039EC17F0010E066E080E076ED6EC15F0EB
:1024F000C282C2B27EEF12F080EF12F079EF12F0DA
:10250000C3CFB9F0060E0001BA6FD890B933BA2F15
:1025100085EF12F0B951C4CFBBF0BC6BD890BB377C
:10252000BC37D890BB37BC37BB11C16FBC51C26F31
:10253000000E136E000E146EA00E156E400E166E79
:10254000C1C001F0C2C002F0036A046A000E8DEC43
:1025500011F001C00FF002C010F003C011F004C070
:1025600012F06EEC0BF00FC028F010C029F011C073
:102570002AF012C02BF0000E2C6E000E2D6E800E75
:102580002E6E440E2F6E83EC0DF028C0BDF029C0D6
:10259000BEF02AC0BFF02BC0C0F0D00E0001A36F68
:1025A000000EA46F0F0EA56F080EA66FBDC0A7F09A
:1025B000BEC0A8F0BFC0A9F0C0C0AAF0A4EC16F03D
:1025C000020E066E010E39EC17F0D00E066E000EEC
:1025D000076ED6EC15F0030E0001B96F970EE82ECA
:1025E000FED7B92FFCD700D078EF12F007EF00F03C
:1025F000033404340A6E0A50D8A401EF13F003EF39
:1026000013F00DEF13F0000E016E000E026E000EBF
:10261000036E000E046E7AEF13F001C005F002C0E5
:1026200006F003C007F004C008F0200E1DEF13F001
:10263000D8900832073206320532E82E18EF13F030
:102640000550096E038EFF0E0116FF0E0216FF0ED7
:102650000316000E0416960E0A5E0ABE34EF13F03F
:1026600032EF13F04AEF13F00A50800A970FD8B0F8
:102670003CEF13F03EEF13F040EF13F003EF13F0D5
:10268000D89004320332023201320A3E40EF13F096
:1026900062EF13F01F0E0A6450EF13F052EF13F0C5
:1026A0005AEF13F003EF13F0D890013602360336D9
:1026B00004360A060A50D8A460EF13F062EF13F054
:1026C00054EF13F00950D8B468EF13F06AEF13F029
:1026D00072EF13F0041E031E021E016C000E022294
:1026E0000322042201C001F002C002F003C003F083
:1026F00004C004F01200000E2814306E000E2914DD
:10270000316E800E2A14326E7F0E2B14336E3050D1
:10271000311032103310D8A490EF13F092EF13F071
:102720009AEF13F0000E286E000E296E000E2A6E2E
:10273000000E2B6E000E2C14306E000E2D14316E18
:10274000800E2E14326E7F0E2F14336E30503110E7
:1027500032103310D8A4AFEF13F0B1EF13F0B9EF8C
:1027600013F0000E2C6E000E2D6E000E2E6E000E5D
:102770002F6E2BAEBEEF13F0C0EF13F0C9EF13F0C6
:10278000286C291ED8B0292A2A1ED8B02A2A800EE1
:102790002B562FAECEEF13F0D0EF13F0D9EF13F08E
:1027A0002C6C2D1ED8B02D2A2E1ED8B02E2A800EAD
:1027B0002F56000E281A000E291A000E2A1A800E13
:1027C0002B1A000E2C1A000E2D1A000E2E1A800E37
:1027D0002F1A2C50285C2D5029582E502A582F5033
:1027E0002B58D8B0F6EF13F0F8EF13F0FBEF13F01F
:1027F000D890FCEF13F0D8801200C7C00BF0C8C00F
:102800000CF0C9C00DF0CAC00EF001C00BF002C040
:102810000CF003C00DF004C00EF00BC005F00CC0AE
:1028200006F00DC007F00EC008F0180E1DEF14F0F2
:10283000D8900832073206320532E82E18EF14F02D
:102840000550096E0A6A09500A10D8A42AEF14F03C
:102850002CEF14F04CEF14F0D8900B34056E0C34C0
:10286000066E0D34076E0E34086E05500610071004
:102870000810D8A43EEF14F040EF14F046EF14F027
:10288000000E026E020E016E7BEF14F0000E026E5F
:10289000030E016E7BEF14F009280A10D8A453EF41
:1028A00014F055EF14F077EF14F00BC005F00CC0E6
:1028B00006F00DC007F00EC008F0090ED8900536DE
:1028C000063607360836E82E5EEF14F0055006107F
:1028D00007100810D8B46FEF14F072EF14F0010E67
:1028E00073EF14F0000E016E026A7BEF14F0000E1D
:1028F000026E040E016E120003500410D8B483EF70
:1029000014F085EF14F08EEF14F003500410D8A4E7
:102910008CEF14F08EEF14F093EF14F0015006ECEE
:1029200018F0E0EF14F020EE0AF00350D92604501E
:10293000DA22DE50DE10D8B4A0EF14F0A2EF14F0CB
:10294000BDEF14F020EE0AF00350D9260450DA222D
:1029500010EE03F00350E1260450E222DE50E65C64
:10296000E650800A096EDE50800A0958D8B0BBEFE5
:1029700014F0BDEF14F0E0EF14F020EE03F003507C
:10298000D9260450DA22DECF05F0DDCF06F003C0F1
:10299000D9FF04C0DAFFDECF07F0DDCF08F0055025
:1029A0000724D96E06500820DA6E01C0DFFF20EE42
:1029B00003F00350D9260450DA22DE2A000EDD226D
:1029C0001200000E0F6E000E0E6E07C0D9FF08C079
:1029D000DAFFDECFF6FFDDCFF7FF0800F5502A0A59
:1029E000D8A4F5EF14F0F7EF14F02BEF15F007C0B3
:1029F000D9FF08C0DAFFDE2A000EDD2209C0D9FFA8
:102A00000AC0DAFFDFCF0BF0020EDE26DFCF0CF0BC
:102A1000000EDD220BC0D9FF0CC0DAFFDECF0EF0B6
:102A2000DDCF0FF03FEF15F00EC001F00FC002F048
:102A3000000E046E0A0E036ED9EC17F00D5001243F
:102A40000E6E000E02200F6E07C0D9FF08C0DAFF1D
:102A5000DE2A000EDD2207C0D9FF08C0DAFFDECF74
:102A6000F6FFDDCFF7FF0800F550D00F0D6E090E11
:102A70000D643DEF15F03FEF15F014EF15F00EC0AB
:102A800007F00FC008F01200000E0114096E000ECE
:102A900002140A6E800E03140B6E7F0E04140C6E6B
:102AA00009500A100B100C10D8A459EF15F05BEF69
:102AB00015F063EF15F0000E016E000E026E000EB1
:102AC000036E000E046E000E0514096E000E06144F
:102AD0000A6E800E07140B6E7F0E08140C6E0950E0
:102AE0000A100B100C10D8A478EF15F07AEF15F03F
:102AF00082EF15F0000E056E000E066E000E076EDA
:102B0000000E086E055001180FE1065002180CE186
:102B10000750031809E108500418D8B492EF15F0D3
:102B200094EF15F097EF15F0D89098EF15F0D88046
:102B3000120016BE9EEF15F0A0EF15F0A6EF15F0EF
:102B400015C01AF016C01BF0AAEF15F0000E1B6E90
:102B5000000E1A6E000E196E000E186EBCEF15F006
:102B6000000E026E200E016E11C003F012C004F0C0
:102B70007CEC14F0184A192A1A50185C1950800A73
:102B8000176E1B50800A1758D8A0C9EF15F0CBEF6D
:102B900015F0B0EF15F013C00AF014C00BF011C01F
:102BA0000CF012C00DF017EC17F01200000E0A6EB8
:102BB000F3EF15F00A500624086E000E0720096E88
:102BC00008C0F6FF09C0F7FFF86A070EF76403D0E4
:102BD0000800F55005D0F6CFE1FFF7CFE2FFE75050
:102BE000F3EC17F00A2A0A500624086E000E07209C
:102BF000096E08C0F6FF09C0F7FFF86A070EF76410
:102C000003D00800F55005D0F6CFE1FFF7CFE2FF83
:102C1000E7500009D8A40FEF16F011EF16F0DAEF25
:102C200015F01200026E0250F00B036E02C001F0AC
:102C30000F0E01160138F00B046E03508C128C84B9
:102C4000030E016E980EE82EFED7012EFCD78C9451
:102C5000030E016E980EE82EFED7012EFCD703500E
:102C6000FF0A8C1604508C128C84030E016E980E91
:102C7000E82EFED7012EFCD78C94030E016E980E21
:102C8000E82EFED7012EFCD70450FF0A8C16120046
:102C900004BE57EF16F004500310021006E10104C1
:102CA000D8B055EF16F057EF16F072EF16F001C0DE
:102CB00005F002C006F003C007F004C008F0051ECE
:102CC000061E071E081E052A000E062207220822DD
:102CD00005C001F006C002F007C003F008C004F010
:102CE0007AEF16F001C001F002C002F003C003F059
:102CF00004C004F012009DC0A1F09EC0A2F090EFAD
:102D000016F09BC08CF09CC08DF0A10E00018E6F60
:102D1000000E8F6F9FC090F0A0C091F050EC0FF0AC
:102D2000A1C0F6FFA2C0F7FF0800F5500009D8A423
:102D30009CEF16F09EEF16F081EF16F0000E0001EA
:102D40009C6F000E9B6F1200A70E0001AB6F000E70
:102D5000AC6FA3C0ADF0A4C0AEF0000EB16F000E1A
:102D6000B06F000EB86F000EB76FAD0E9B6F000E08
:102D70009C6FA5C09DF0A6C09EF0AB0E9F6F000E8D
:102D8000A06F7BEC16F00001B051A325D96EB151B4
:102D9000A421DA6EDF6A120003C009F004C00AF051
:102DA00001C007F002C008F0E6EF16F009C0D9FF35
:102DB0000AC0DAFFDF500B6E094A0A2A07C0D9FFA2
:102DC00008C0DAFF0BC0DFFF074A082A0506D8A0B3
:102DD0000606052806E10628D8A4F1EF16F0F3EF61
:102DE00016F0D6EF16F01200000E2C1A000E2D1A57
:102DF000000E2E1A800E2F1A28C001F029C002F0F2
:102E00002AC003F02BC004F02CC005F02DC006F042
:102E10002EC007F02FC008F00EEC09F001C028F01A
:102E200002C029F003C02AF004C02BF01200000EEB
:102E3000106E000E0F6E28EF17F00EC001F0026A40
:102E40000CC003F00DC004F07CEC14F00F4A102A03
:102E50000F500A24D96E10500B20DA6EDF500E6E20
:102E60000E50D8A436EF17F038EF17F01DEF17F01B
:102E70001200076E000E086E0750D8A442EF17F03C
:102E800044EF17F048EF17F0800E086E55EF17F07B
:102E90000704D8A44EEF17F050EF17F054EF17F0D7
:102EA000C00E086E55EF17F000F0065008260850C7
:102EB000F9EC17F0120003C005F004C006F001C0E1
:102EC00007F002C008F005C0F6FF06C0F7FF054A8C
:102ED000062A07C0D9FF08C0DAFF074A082A0800F7
:102EE000F5CFDFFFDF50D8A478EF17F07AEF17F0B7
:102EF00063EF17F012000150021003100410D8B451
:102F000084EF17F086EF17F08EEF17F0000E011A1E
:102F1000000E021A000E031A800E041A01C001F0FE
:102F200002C002F003C003F004C004F01200000E5F
:102F3000C26E000EC16E000EC06EC290C30EC216ED
:102F4000CF0EC116C150F00B0E09C16EC09EC0500D
:102F5000F80B0109C06EC050C70B3009C06EC280AB
:102F60001200FFEC17F0010EF9EC17F0020EF9EC6D
:102F700017F0060EF9EC17F00C0EF9EC17F0100E26
:102F8000F9EC17F02C0EF9EC17F0120001EE00F03E
:102F9000500EEE6AE806FDE100EEC3F01D0EEE6A8B
:102FA000E806FDE15E905E92000EF86E000167EFAC
:102FB00012F001500302F3CF05F0F4CF06F00150F8
:102FC0000402F350062602500302F350062605C001
:102FD00001F006C002F01200000ED36E700ED31284
:102FE000030ED3121200056E8C80055012EC16F001
:102FF0001200056E8C90055012EC16F01200000EB7
:0E300000956E8C92120006005E921100120076
:020000040020DA
:08000000FFFFFFFFFFFFFFFF00
:020000040030CA
:0E000000000B191EFF8180FF0FC00FE00F40A4
:00000001FF
