:0400000007EF00F016
:10000800028209ED00F05EEF00F006009DA00FEF00
:1000180000F011EF00F02CEF00F09EA016EF00F0BA
:1000280018EF00F02CEF00F08AA01DEF00F021EF90
:1000380000F0016A012A22EF00F0016A8A500118D3
:10004800FE0B01188A6E0B0ECF6EDC0ECE6E9E90E4
:1000580002921100000ECD6ECD90CD8E300ECD12D5
:10006800CD96CD94CD920B0ECF6EDC0ECE6ECD809C
:100078001200000ED06E000EF26E000E9E6E000E84
:100088009D6ED09EF28EF28C9D809E90120057EC51
:1000980000F03DEC00F02EEC00F0939000F052EFF1
:1000A80000F007EF00F0000ED36E700ED312030EAF
:0E00B800D31212000290029200014BEF00F0F2
:020000040020DA
:08000000FFFFFFFFFFFFFFFF00
:020000040030CA
:0E000000000B191EFF8080FF0FC00FE00F40A5
:00000001FF
