:0400000007EF00F016
:0A0008000C82FEED04F0DEEF04F0C0
:1008000000414443204D45444943494F4E3A20005E
:0108100000E7
:10081200026E0250F00B036E02C001F00F0E0116C1
:100822000138F00B046E03508C128C86030E016E9D
:10083200980EE82EFED7012EFCD78C96030E016E81
:10084200980EE82EFED7012EFCD70350FF0A8C1615
:1008520004508C128C86030E016E980EE82EFED781
:10086200012EFCD78C96030E016E980EE82EFED751
:10087200012EFCD70450FF0A8C161200000E0A6EDD
:1008820052EF04F00A500624086E000E0720096E8B
:1008920008C0F6FF09C0F7FF0800F550EEEC04F0BF
:1008A2000A2A0A500624086E000E0720096E08C0A4
:1008B200F6FF09C0F7FF0800F5500009D8A464EF5D
:1008C20004F066EF04F043EF04F01200E7EC04F0EA
:1008D200C9EC04F0AFEC04F0000E066E000E8DECD5
:1008E20004F0010E066E080E076E3FEC04F0C282A1
:1008F200C2B27EEF04F080EF04F079EF04F0C4CFCF
:100902008CFF030E0B6E980EE82EFED70B2EFCD733
:1009120078EF04F007EF00F0076E000E086E075044
:10092200D8A496EF04F098EF04F09CEF04F0800E48
:10093200086EA9EF04F00704D8A4A2EF04F0A4EF14
:1009420004F0A8EF04F0C00E086EA9EF04F000F066
:10095200065008260850F4EC04F01200000EC26E95
:10096200000EC16E000EC06EC290C30EC216CF0E34
:10097200C116C150F00B0E09C16EC09EC050F80BDB
:100982000109C06EC050C70B3009C06EC280120090
:10099200FAEC04F0010EF4EC04F0020EF4EC04F0B4
:1009A200060EF4EC04F00C0EF4EC04F0100EF4EC71
:1009B20004F02C0EF4EC04F012000C900C92000ED9
:1009C200F86E080EF76E000167EF04F0000ED36EAA
:1009D200700ED312030ED3121200056E8C820550D4
:1009E20009EC04F01200056E8C92055009EC04F03B
:1009F2001200000E956E8C94120006000C921100EB
:020000040020DA
:08000000FFFFFFFFFFFFFFFF00
:020000040030CA
:0E000000000B191EFF8180FF0FC00FE00F40A4
:00000001FF
