:0400000007EF00F016
:10000800038209ED00F08BEF00F00600F2A80FEF75
:1000180000F011EF00F01CEF00F0F2A216EF00F074
:1000280018EF00F01CEF00F0F00E8C168C80F292A6
:10003800F0A621EF00F023EF00F02EEF00F0F0A083
:1000480028EF00F02AEF00F02EEF00F0F00E8C16EB
:100058008C82F090F0A833EF00F035EF00F041EF1C
:1000680000F0F0A23AEF00F03CEF00F041EF00F0B2
:10007800F00E8C16030E8C12F092039211007DEC98
:1000880000F085EC00F069EC00F08CA84EEF00F071
:1000980052EF00F0016A012A53EF00F0016A013AB9
:1000A8008C500118EF0B01188C6E020E026E040EB4
:1000B800016EBA0EE82EFED7012EFCD7022EFAD713
:1000C80000D049EF00F007EF00F0000ED06E000EF0
:1000D800F26E000EF16E000EF06ED09EF28EF28877
:1000E800F292F18CF086F090F18AF088F090F18825
:1000F8001200000ED36ED38E700ED312030ED312DD
:100108001200E00E956E9380938293841200039000
:080118000392000143EF00F027
:020000040020DA
:08000000FFFFFFFFFFFFFFFF00
:020000040030CA
:0E000000000B191EFF8080FF0FC00FE00F40A5
:00000001FF
