:0400000007EF00F016
:10000800038253ED00F04EEF00F047EC00F03CECBB
:1000180000F030EC00F024EC00F095908C90010E8C
:100028008C1A030E026E8A0E016E560EE82EFED74B
:10003800012EFCD7022EFAD713EF00F007EF00F0DD
:10004800000EBA6EBA50F00B0C09BA6E640EBB6E95
:10005800CF0EBA1694921200000EBD6EBD50F00B72
:100068000C09BD6E3E0EBE6ECF0EBD1694941200E6
:10007800000ECA6E000ECC6ECA94030ECA127C0E15
:10008800CB6ECA841200000ED36E700ED312030E0C
:10009800D312120003900392000109EF00F006004A
:0400A80003921100AE
:020000040020DA
:08000000FFFFFFFFFFFFFFFF00
:020000040030CA
:0E000000000B191EFF8180FF0FC00FE00F40A4
:00000001FF
