:0400000007EF00F016
:10000800048209ED00F062EF00F006009EA20FEFF7
:1000180000F011EF00F037EF00F09DA216EF00F0AE
:1000280018EF00F037EF00F0014A022AF50E011828
:1000380006E10204D8A423EF00F025EF00F034EF26
:1000480000F0000E026E000E016E0350D8B42FEFC0
:1000580000F032EF00F0010E33EF00F0000E036EF7
:10006800840ECC6E9E92049211006AEC00F049EC6A
:1000780000F057EC00F0939003B002D08A9001D0C2
:100088008A8040EF00F007EF00F0000EF26E000EDD
:100098009E6E000E9D6E000ED06ED09EF28EF28C7B
:1000A8009E929D821200000ECA6ECA94030ECA1256
:1000B800870ECA16830ECC6ECA841200036A026ABF
:1000C800016A04900492000139EF00F0000ED36E2B
:0A00D800700ED312030ED3121200B3
:020000040020DA
:08000000FFFFFFFFFFFFFFFF00
:020000040030CA
:0E000000000B191EFF8080FF0FC00FE00F40A5
:00000001FF
