:040000008DEF3FF051
:107F1A000001A9EF3FF00F0E956E949094929494FD
:107F2A001200056E8B800550CAEC3FF01200056EF8
:107F3A008B900550CAEC3FF01200000ED36E700E03
:107F4A00D312030ED3121200A2EC3FF0B7EC3FF0AB
:107F5A00820E9CEC3FF0410E96EC3FF0B3EF3FF0FF
:107F6A0000EF00F090EC3FF08B94010ECAEC3FF06A
:107F7A00020ECAEC3FF0280ECAEC3FF0070ECAEC1C
:107F8A003FF00C0ECAEC3FF01200026E0250F00BEA
:107F9A00036E02C001F00F0E01160138F00B046ED9
:107FAA0003508C128B82030E016E980EE82EFED7B8
:107FBA00012EFCD78B92030E016E980EE82EFED787
:107FCA00012EFCD70350FF0A8C1604508C128B82A8
:107FDA00030E016E980EE82EFED7012EFCD78B9267
:107FEA00030E016E980EE82EFED7012EFCD7045020
:067FFA00FF0A8C161200C4
:020000040020DA
:08000000FFFFFFFFFFFFFFFF00
:020000040030CA
:0E000000000B191EFF8080FF0FC00FE00F40A5
:00000001FF
